{
  "contractName": "Poll",
  "abi": [
    {
      "anonymous": false,
      "inputs": [
        {
          "indexed": true,
          "internalType": "uint256",
          "name": "pollId",
          "type": "uint256"
        },
        {
          "indexed": false,
          "internalType": "string",
          "name": "question",
          "type": "string"
        }
      ],
      "name": "PollCreated",
      "type": "event"
    },
    {
      "anonymous": false,
      "inputs": [
        {
          "indexed": true,
          "internalType": "uint256",
          "name": "pollId",
          "type": "uint256"
        },
        {
          "indexed": false,
          "internalType": "string",
          "name": "question",
          "type": "string"
        },
        {
          "indexed": false,
          "internalType": "uint256[]",
          "name": "results",
          "type": "uint256[]"
        }
      ],
      "name": "PollFinished",
      "type": "event"
    },
    {
      "anonymous": false,
      "inputs": [
        {
          "indexed": true,
          "internalType": "uint256",
          "name": "pollId",
          "type": "uint256"
        },
        {
          "indexed": false,
          "internalType": "string",
          "name": "option",
          "type": "string"
        },
        {
          "indexed": false,
          "internalType": "string",
          "name": "option2",
          "type": "string"
        }
      ],
      "name": "PollOptionAdded",
      "type": "event"
    },
    {
      "inputs": [],
      "name": "pollCount",
      "outputs": [
        {
          "internalType": "uint256",
          "name": "",
          "type": "uint256"
        }
      ],
      "stateMutability": "view",
      "type": "function",
      "constant": true
    },
    {
      "inputs": [
        {
          "internalType": "uint256",
          "name": "",
          "type": "uint256"
        }
      ],
      "name": "polls",
      "outputs": [
        {
          "internalType": "address",
          "name": "creator",
          "type": "address"
        },
        {
          "internalType": "string",
          "name": "question",
          "type": "string"
        },
        {
          "internalType": "bool",
          "name": "finished",
          "type": "bool"
        }
      ],
      "stateMutability": "view",
      "type": "function",
      "constant": true
    },
    {
      "inputs": [
        {
          "internalType": "string",
          "name": "_question",
          "type": "string"
        }
      ],
      "name": "createPoll",
      "outputs": [],
      "stateMutability": "nonpayable",
      "type": "function"
    },
    {
      "inputs": [
        {
          "internalType": "uint256",
          "name": "_pollId",
          "type": "uint256"
        },
        {
          "internalType": "string",
          "name": "_option",
          "type": "string"
        }
      ],
      "name": "addPollOption",
      "outputs": [],
      "stateMutability": "nonpayable",
      "type": "function"
    },
    {
      "inputs": [
        {
          "internalType": "uint256",
          "name": "_pollId",
          "type": "uint256"
        },
        {
          "internalType": "uint256",
          "name": "_optionIndex",
          "type": "uint256"
        }
      ],
      "name": "vote",
      "outputs": [],
      "stateMutability": "nonpayable",
      "type": "function"
    },
    {
      "inputs": [
        {
          "internalType": "uint256",
          "name": "_pollId",
          "type": "uint256"
        }
      ],
      "name": "getPollOptions",
      "outputs": [
        {
          "internalType": "string[]",
          "name": "",
          "type": "string[]"
        }
      ],
      "stateMutability": "view",
      "type": "function",
      "constant": true
    }
  ],
  "bytecode": "0x608060405234801561001057600080fd5b50610abd806100206000396000f3fe608060405234801561001057600080fd5b50600436106100625760003560e01c806374a9ced9146100675780638bfc405d1461007c5780639207891d1461008f578063ac2f0074146100ad578063b384abef146100cf578063f7562765146100e2575b600080fd5b61007a610075366004610681565b610102565b005b61007a61008a3660046106d4565b610192565b6100976102d0565b6040516100a491906109d8565b60405180910390f35b6100c06100bb3660046106bc565b6102d6565b6040516100a493929190610785565b61007a6100dd366004610719565b61038e565b6100f56100f03660046106bc565b610451565b6040516100a491906107bb565b6001805490600061011283610a40565b90915550506001805460009081526020818152604080832080546001600160a01b03191633179055835483529091208351610154939190910191840190610567565b506001547f65d5ac2bf1bca69566bef1affdfca5bb37b9577fc0b3af4c7c4638225e67b39c82604051610187919061081b565b60405180910390a250565b6000821180156101a457506001548211155b6101c95760405162461bcd60e51b81526004016101c09061094a565b60405180910390fd5b60008151116101ea5760405162461bcd60e51b81526004016101c0906109a8565b6000828152602081905260409020546001600160a01b031633146102205760405162461bcd60e51b81526004016101c090610973565b60008281526020818152604082206002018054600181018255908352918190208351610253939190910191840190610567565b50817f3e0a1ddc1adbadd3bd5aad68093650c4ae88d8332ea32fe574f7d876b0e4e767826000808681526020019081526020016000206002016000815481106102ac57634e487b7160e01b600052603260045260246000fd5b906000526020600020016040516102c4929190610835565b60405180910390a25050565b60015481565b600060208190529081526040902080546001820180546001600160a01b03909216929161030290610a05565b80601f016020809104026020016040519081016040528092919081815260200182805461032e90610a05565b801561037b5780601f106103505761010080835404028352916020019161037b565b820191906000526020600020905b81548152906001019060200180831161035e57829003601f168201915b5050506004909301549192505060ff1683565b6000821180156103a057506001548211155b6103bc5760405162461bcd60e51b81526004016101c09061094a565b60008281526020819052604090206002015481106103ec5760405162461bcd60e51b81526004016101c0906108f5565b600082815260208181526040808320338452600301909152902054156104245760405162461bcd60e51b81526004016101c090610923565b61042f8160016109ed565b6000928352602083815260408085203386526003019091529092209190915550565b606060008211801561046557506001548211155b6104815760405162461bcd60e51b81526004016101c09061094a565b6000828152602081815260408083206002810180548351818602810186019094528084529194929390929084015b8282101561055b5783829060005260206000200180546104ce90610a05565b80601f01602080910402602001604051908101604052809291908181526020018280546104fa90610a05565b80156105475780601f1061051c57610100808354040283529160200191610547565b820191906000526020600020905b81548152906001019060200180831161052a57829003601f168201915b5050505050815260200190600101906104af565b50505050915050919050565b82805461057390610a05565b90600052602060002090601f01602090048101928261059557600085556105db565b82601f106105ae57805160ff19168380011785556105db565b828001600101855582156105db579182015b828111156105db5782518255916020019190600101906105c0565b506105e79291506105eb565b5090565b5b808211156105e757600081556001016105ec565b600082601f830112610610578081fd5b813567ffffffffffffffff8082111561062b5761062b610a71565b604051601f8301601f19168101602001828111828210171561064f5761064f610a71565b604052828152848301602001861015610666578384fd5b82602086016020830137918201602001929092529392505050565b600060208284031215610692578081fd5b813567ffffffffffffffff8111156106a8578182fd5b6106b484828501610600565b949350505050565b6000602082840312156106cd578081fd5b5035919050565b600080604083850312156106e6578081fd5b82359150602083013567ffffffffffffffff811115610703578182fd5b61070f85828601610600565b9150509250929050565b6000806040838503121561072b578182fd5b50508035926020909101359150565b60008151808452815b8181101561075f57602081850181015186830182015201610743565b818111156107705782602083870101525b50601f01601f19169290920160200192915050565b6001600160a01b03841681526060602082018190526000906107a99083018561073a565b90508215156040830152949350505050565b6000602080830181845280855180835260408601915060408482028701019250838701855b8281101561080e57603f198886030184526107fc85835161073a565b945092850192908501906001016107e0565b5092979650505050505050565b60006020825261082e602083018461073a565b9392505050565b600060408252610848604083018561073a565b6020838203818501528285548460028204905060018083168061086c57607f831692505b85831081141561088a57634e487b7160e01b88526022600452602488fd5b61089483886109d8565b96508080156108aa57600181146108bb576108e5565b60ff198516885286880195506108e5565b6108c48b6109e1565b895b858110156108df5781548a8201529084019088016108c6565b89019650505b50939a9950505050505050505050565b602080825260149082015273092dcecc2d8d2c840dee0e8d2dedc40d2dcc8caf60631b604082015260600190565b6020808252600d908201526c105b1c9958591e481d9bdd1959609a1b604082015260600190565b6020808252600f908201526e125b9d985b1a59081c1bdb1b081251608a1b604082015260600190565b6020808252818101527f4f6e6c79207468652063726561746f722063616e20616464206f7074696f6e73604082015260600190565b6020808252601690820152754f7074696f6e2063616e6e6f7420626520656d70747960501b604082015260600190565b90815260200190565b60009081526020902090565b60008219821115610a0057610a00610a5b565b500190565b600281046001821680610a1957607f821691505b60208210811415610a3a57634e487b7160e01b600052602260045260246000fd5b50919050565b6000600019821415610a5457610a54610a5b565b5060010190565b634e487b7160e01b600052601160045260246000fd5b634e487b7160e01b600052604160045260246000fdfea264697066735822122040a0d7c916f47d6db71b84f5bebaea3fc52a441755e06baffcc5ebaac880c25764736f6c63430008000033",
  "immutableReferences": {},
  "source": "pragma solidity ^0.8.0;\r\n\r\ncontract Poll {\r\n    struct PollData {\r\n        address creator;\r\n        string question;\r\n        string[] options;\r\n        mapping(address => uint256) votes;\r\n        bool finished;\r\n    }\r\n\r\n    mapping(uint256 => PollData) public polls;\r\n    uint256 public pollCount;\r\n\r\n    event PollCreated(uint256 indexed pollId, string question); \r\n    event PollOptionAdded(uint256 indexed pollId, string option, string option2); \r\n    event PollFinished(uint256 indexed pollId, string question, uint256[] results); \r\n\r\n    function createPoll(string memory _question) public {\r\n        pollCount++;\r\n        polls[pollCount].creator = msg.sender;\r\n        polls[pollCount].question = _question;\r\n        emit PollCreated(pollCount, _question);\r\n    }\r\n\r\n    function addPollOption(uint256 _pollId, string memory _option) public { \r\n        require(_pollId > 0 && _pollId <= pollCount, \"Invalid poll ID\");\r\n        require(bytes(_option).length > 0, \"Option cannot be empty\");\r\n        require(msg.sender == polls[_pollId].creator, \"Only the creator can add options\");\r\n        polls[_pollId].options.push(_option);\r\n        emit PollOptionAdded(_pollId, _option, polls[_pollId].options[0]);\r\n    }\r\n\r\n    function vote(uint256 _pollId, uint256 _optionIndex) public { \r\n        require(_pollId > 0 && _pollId <= pollCount, \"Invalid poll ID\");\r\n        require(_optionIndex < polls[_pollId].options.length, \"Invalid option index\"); // Removed check for _optionIndex >= 0\r\n        require(polls[_pollId].votes[msg.sender] == 0, \"Already voted\");\r\n\r\n        polls[_pollId].votes[msg.sender] = _optionIndex + 1;\r\n    }\r\n\r\n    function getPollOptions(uint256 _pollId) public view returns (string[] memory) { \r\n        require(_pollId > 0 && _pollId <= pollCount, \"Invalid poll ID\");\r\n\r\n        // Fetch the poll from the mapping using the _pollId\r\n        PollData storage poll = polls[_pollId];\r\n\r\n        // Return the options array from the poll\r\n        return poll.options;\r\n    }\r\n\r\n    // function finishPoll(uint256 _pollId) public { \r\n    //     require(_pollId > 0 && _pollId <= pollCount, \"Invalid poll ID\");\r\n    //     require(msg.sender == polls[_pollId].creator, \"Only the creator can finish the poll\");\r\n\r\n    //     polls[_pollId].finished = true;\r\n\r\n    //     // Emit event with results\r\n    //     uint256[] memory results = new uint256[](polls[_pollId].options.length);\r\n    //     for (uint256 i = 0; i < polls[_pollId].options.length; i++) {\r\n    //         uint256 optionIndex = i + 1;\r\n    //         uint256 voteCount = 0;\r\n    //         for (uint256 j = 0; j < pollCount; j++) {\r\n    //             if (bytes(polls[_pollId].question).length > 0) {\r\n    //                 voteCount++;\r\n    //             }\r\n    //         }\r\n    //         results[i] = voteCount;\r\n    //     }\r\n    //     emit PollFinished(_pollId, polls[_pollId].question, results);\r\n    // }\r\n}\r\n",
  "sourcePath": "C:\\Users\\UF\\Desktop\\Github\\ChoiceMaker\\contracts\\Poll.sol",
  "compiler": {
    "name": "solc",
    "version": "0.8.0+commit.c7dfd78e.Emscripten.clang"
  },
  "schemaVersion": "3.4.16",
  "updatedAt": "2024-05-08T06:10:48.388Z",
  "networkType": "ethereum",
  "devdoc": {
    "kind": "dev",
    "methods": {},
    "version": 1
  },
  "userdoc": {
    "kind": "user",
    "methods": {},
    "version": 1
  }
}