{
  "contractName": "Poll",
  "abi": [
    {
      "anonymous": false,
      "inputs": [
        {
          "indexed": true,
          "internalType": "uint256",
          "name": "pollId",
          "type": "uint256"
        },
        {
          "indexed": false,
          "internalType": "string",
          "name": "question",
          "type": "string"
        },
        {
          "indexed": false,
          "internalType": "string[]",
          "name": "options",
          "type": "string[]"
        }
      ],
      "name": "PollCreated",
      "type": "event"
    },
    {
      "anonymous": false,
      "inputs": [
        {
          "indexed": true,
          "internalType": "uint256",
          "name": "pollId",
          "type": "uint256"
        },
        {
          "indexed": false,
          "internalType": "string",
          "name": "question",
          "type": "string"
        },
        {
          "indexed": false,
          "internalType": "uint256[]",
          "name": "results",
          "type": "uint256[]"
        }
      ],
      "name": "PollFinished",
      "type": "event"
    },
    {
      "anonymous": false,
      "inputs": [
        {
          "indexed": true,
          "internalType": "uint256",
          "name": "pollId",
          "type": "uint256"
        },
        {
          "indexed": false,
          "internalType": "string",
          "name": "option",
          "type": "string"
        }
      ],
      "name": "PollOptionAdded",
      "type": "event"
    },
    {
      "inputs": [],
      "name": "pollCount",
      "outputs": [
        {
          "internalType": "uint256",
          "name": "",
          "type": "uint256"
        }
      ],
      "stateMutability": "view",
      "type": "function",
      "constant": true
    },
    {
      "inputs": [
        {
          "internalType": "uint256",
          "name": "",
          "type": "uint256"
        }
      ],
      "name": "polls",
      "outputs": [
        {
          "internalType": "address",
          "name": "creator",
          "type": "address"
        },
        {
          "internalType": "string",
          "name": "question",
          "type": "string"
        },
        {
          "internalType": "bool",
          "name": "finished",
          "type": "bool"
        }
      ],
      "stateMutability": "view",
      "type": "function",
      "constant": true
    },
    {
      "inputs": [
        {
          "internalType": "string",
          "name": "_question",
          "type": "string"
        },
        {
          "internalType": "string[]",
          "name": "_options",
          "type": "string[]"
        }
      ],
      "name": "createPoll",
      "outputs": [],
      "stateMutability": "nonpayable",
      "type": "function"
    },
    {
      "inputs": [
        {
          "internalType": "uint256",
          "name": "_pollId",
          "type": "uint256"
        },
        {
          "internalType": "uint256",
          "name": "_optionIndex",
          "type": "uint256"
        }
      ],
      "name": "vote",
      "outputs": [],
      "stateMutability": "nonpayable",
      "type": "function"
    },
    {
      "inputs": [
        {
          "internalType": "uint256",
          "name": "_pollId",
          "type": "uint256"
        }
      ],
      "name": "getPollOptions",
      "outputs": [
        {
          "internalType": "string[]",
          "name": "",
          "type": "string[]"
        }
      ],
      "stateMutability": "view",
      "type": "function",
      "constant": true
    },
    {
      "inputs": [
        {
          "internalType": "uint256",
          "name": "_pollId",
          "type": "uint256"
        }
      ],
      "name": "finishPoll",
      "outputs": [],
      "stateMutability": "nonpayable",
      "type": "function"
    }
  ],
  "bytecode": "0x608060405234801561001057600080fd5b50610d59806100206000396000f3fe608060405234801561001057600080fd5b50600436106100625760003560e01c806329c47709146100675780637e3d71c31461007c5780639207891d1461008f578063ac2f0074146100ad578063b384abef146100cf578063f7562765146100e2575b600080fd5b61007a61007536600461090b565b610102565b005b61007a61008a36600461084b565b6102f5565b610097610400565b6040516100a49190610c4a565b60405180910390f35b6100c06100bb36600461090b565b610406565b6040516100a493929190610a1f565b61007a6100dd366004610923565b6104be565b6100f56100f036600461090b565b610581565b6040516100a49190610a55565b60008111801561011457506001548111155b6101395760405162461bcd60e51b815260040161013090610ba6565b60405180910390fd5b6000818152602081905260409020546001600160a01b0316331461016f5760405162461bcd60e51b815260040161013090610bcf565b600081815260208190526040812060048101805460ff191660011790556002015467ffffffffffffffff8111156101b657634e487b7160e01b600052604160045260246000fd5b6040519080825280602002602001820160405280156101df578160200160208202803683370190505b50905060005b6000838152602081905260409020600201548110156102a257600061020b826001610c89565b90506000805b60015481101561025f576000868152602081905260408120600101805461023790610ca1565b9050111561024d578161024981610cdc565b9250505b8061025781610cdc565b915050610211565b508084848151811061028157634e487b7160e01b600052603260045260246000fd5b6020026020010181815250505050808061029a90610cdc565b9150506101e5565b50817faec1b48de5e97800e4945ddeddb95a01fe9f6fd116277b8461222fa1027e003a600080858152602001908152602001600020600101836040516102e9929190610a9d565b60405180910390a25050565b60008251116103165760405162461bcd60e51b815260040161013090610c13565b6001547f4be3f505bf50604bde92e6940e2df40c36f90cb362640413d520080ca12eabb2838360405161034a929190610a6f565b60405180910390a26001805490600061036283610cdc565b90915550506001805460009081526020818152604080832080546001600160a01b031916331790558354835290912084516103a4939190910191850190610692565b5060015460009081526020818152604090912082516103cb92600290920191840190610716565b506001547f4be3f505bf50604bde92e6940e2df40c36f90cb362640413d520080ca12eabb283836040516102e9929190610a6f565b60015481565b600060208190529081526040902080546001820180546001600160a01b03909216929161043290610ca1565b80601f016020809104026020016040519081016040528092919081815260200182805461045e90610ca1565b80156104ab5780601f10610480576101008083540402835291602001916104ab565b820191906000526020600020905b81548152906001019060200180831161048e57829003601f168201915b5050506004909301549192505060ff1683565b6000821180156104d057506001548211155b6104ec5760405162461bcd60e51b815260040161013090610ba6565b600082815260208190526040902060020154811061051c5760405162461bcd60e51b815260040161013090610b51565b600082815260208181526040808320338452600301909152902054156105545760405162461bcd60e51b815260040161013090610b7f565b61055f816001610c89565b6000928352602083815260408085203386526003019091529092209190915550565b606060008211801561059557506001548211155b6105b15760405162461bcd60e51b815260040161013090610ba6565b60008281526020818152604080832060020180548251818502810185019093528083529193909284015b828210156106875783829060005260206000200180546105fa90610ca1565b80601f016020809104026020016040519081016040528092919081815260200182805461062690610ca1565b80156106735780601f1061064857610100808354040283529160200191610673565b820191906000526020600020905b81548152906001019060200180831161065657829003601f168201915b5050505050815260200190600101906105db565b505050509050919050565b82805461069e90610ca1565b90600052602060002090601f0160209004810192826106c05760008555610706565b82601f106106d957805160ff1916838001178555610706565b82800160010185558215610706579182015b828111156107065782518255916020019190600101906106eb565b5061071292915061076f565b5090565b828054828255906000526020600020908101928215610763579160200282015b828111156107635782518051610753918491602090910190610692565b5091602001919060010190610736565b50610712929150610784565b5b808211156107125760008155600101610770565b8082111561071257600061079882826107a1565b50600101610784565b5080546107ad90610ca1565b6000825580601f106107bf57506107dd565b601f0160209004906000526020600020908101906107dd919061076f565b50565b600082601f8301126107f0578081fd5b813567ffffffffffffffff81111561080a5761080a610d0d565b61081d601f8201601f1916602001610c53565b818152846020838601011115610831578283fd5b816020850160208301379081016020019190915292915050565b6000806040838503121561085d578182fd5b823567ffffffffffffffff80821115610874578384fd5b610880868387016107e0565b9350602091508185013581811115610896578384fd5b8501601f810187136108a6578384fd5b8035828111156108b8576108b8610d0d565b6108c58485830201610c53565b8181528481019350828501865b838110156108fb576108e98b8884358801016107e0565b865294860194908601906001016108d2565b5096999098509650505050505050565b60006020828403121561091c578081fd5b5035919050565b60008060408385031215610935578182fd5b50508035926020909101359150565b60008282518085526020808601955080818302840101818601855b8481101561098d57601f1986840301895261097b8383516109d4565b9884019892509083019060010161095f565b5090979650505050505050565b6000815180845260208085019450808401835b838110156109c9578151875295820195908201906001016109ad565b509495945050505050565b60008151808452815b818110156109f9576020818501810151868301820152016109dd565b81811115610a0a5782602083870101525b50601f01601f19169290920160200192915050565b6001600160a01b0384168152606060208201819052600090610a43908301856109d4565b90508215156040830152949350505050565b600060208252610a686020830184610944565b9392505050565b600060408252610a8260408301856109d4565b8281036020840152610a948185610944565b95945050505050565b604081528254600090819060028104600180831680610abd57607f831692505b6020808410821415610add57634e487b7160e01b87526022600452602487fd5b610aea8460408a01610c4a565b828015610afe5760018114610b0f57610b39565b60ff19871682528282019750610b39565b610b188c610c7d565b895b87811015610b3357815484820152908601908401610b1a565b83019850505b5050878603818901525050505050610a94818561099a565b602080825260149082015273092dcecc2d8d2c840dee0e8d2dedc40d2dcc8caf60631b604082015260600190565b6020808252600d908201526c105b1c9958591e481d9bdd1959609a1b604082015260600190565b6020808252600f908201526e125b9d985b1a59081c1bdb1b081251608a1b604082015260600190565b60208082526024908201527f4f6e6c79207468652063726561746f722063616e2066696e69736820746865206040820152631c1bdb1b60e21b606082015260800190565b60208082526018908201527f5175657374696f6e2063616e6e6f7420626520656d7074790000000000000000604082015260600190565b90815260200190565b60405181810167ffffffffffffffff81118282101715610c7557610c75610d0d565b604052919050565b60009081526020902090565b60008219821115610c9c57610c9c610cf7565b500190565b600281046001821680610cb557607f821691505b60208210811415610cd657634e487b7160e01b600052602260045260246000fd5b50919050565b6000600019821415610cf057610cf0610cf7565b5060010190565b634e487b7160e01b600052601160045260246000fd5b634e487b7160e01b600052604160045260246000fdfea264697066735822122004e97b2e643eb87106910b6d7fb7e3545bac842ef2ca0739ac0a21b098bc0ab164736f6c63430008000033",
  "immutableReferences": {},
  "source": "pragma solidity ^0.8.0;\r\n\r\ncontract Poll {\r\n    struct PollData {\r\n        address creator;\r\n        string question;\r\n        string[] options;\r\n        mapping(address => uint256) votes;\r\n        bool finished;\r\n    }\r\n\r\n    mapping(uint256 => PollData) public polls;\r\n    uint256 public pollCount;\r\n\r\n    event PollCreated(uint256 indexed pollId, string question, string[] options); \r\n    event PollOptionAdded(uint256 indexed pollId, string option); \r\n    event PollFinished(uint256 indexed pollId, string question, uint256[] results); \r\n\r\n    function createPoll(string memory _question, string[] memory _options) public {\r\n        require(bytes(_question).length > 0, \"Question cannot be empty\");\r\n        emit PollCreated(pollCount, _question, _options);\r\n\r\n        pollCount++;\r\n        polls[pollCount].creator = msg.sender;\r\n        polls[pollCount].question = _question;\r\n        polls[pollCount].options = _options;\r\n        emit PollCreated(pollCount, _question, _options);\r\n    }\r\n\r\n    function vote(uint256 _pollId, uint256 _optionIndex) public { \r\n        require(_pollId > 0 && _pollId <= pollCount, \"Invalid poll ID\");\r\n        require(_optionIndex < polls[_pollId].options.length, \"Invalid option index\"); // Removed check for _optionIndex >= 0\r\n        require(polls[_pollId].votes[msg.sender] == 0, \"Already voted\");\r\n\r\n        polls[_pollId].votes[msg.sender] = _optionIndex + 1;\r\n    }\r\n\r\n    function getPollOptions(uint256 _pollId) public view returns (string[] memory) { \r\n        require(_pollId > 0 && _pollId <= pollCount, \"Invalid poll ID\");\r\n        return polls[_pollId].options;\r\n    }\r\n\r\n    function finishPoll(uint256 _pollId) public { \r\n        require(_pollId > 0 && _pollId <= pollCount, \"Invalid poll ID\");\r\n        require(msg.sender == polls[_pollId].creator, \"Only the creator can finish the poll\");\r\n\r\n        polls[_pollId].finished = true;\r\n\r\n        // Emit event with results\r\n        uint256[] memory results = new uint256[](polls[_pollId].options.length);\r\n        for (uint256 i = 0; i < polls[_pollId].options.length; i++) {\r\n            uint256 optionIndex = i + 1;\r\n            uint256 voteCount = 0;\r\n            for (uint256 j = 0; j < pollCount; j++) {\r\n                if (bytes(polls[_pollId].question).length > 0) {\r\n                    voteCount++;\r\n                }\r\n            }\r\n            results[i] = voteCount;\r\n        }\r\n        emit PollFinished(_pollId, polls[_pollId].question, results);\r\n    }\r\n}\r\n",
  "sourcePath": "C:\\Users\\UF\\Desktop\\Github\\ChoiceMaker\\contracts\\Poll.sol",
  "compiler": {
    "name": "solc",
    "version": "0.8.0+commit.c7dfd78e.Emscripten.clang"
  },
  "schemaVersion": "3.4.16",
  "updatedAt": "2024-05-07T19:24:40.833Z",
  "networkType": "ethereum",
  "devdoc": {
    "kind": "dev",
    "methods": {},
    "version": 1
  },
  "userdoc": {
    "kind": "user",
    "methods": {},
    "version": 1
  }
}