{
  "contractName": "Poll",
  "abi": [
    {
      "anonymous": false,
      "inputs": [
        {
          "indexed": true,
          "internalType": "uint256",
          "name": "pollId",
          "type": "uint256"
        },
        {
          "indexed": false,
          "internalType": "string",
          "name": "question",
          "type": "string"
        }
      ],
      "name": "PollCreated",
      "type": "event"
    },
    {
      "anonymous": false,
      "inputs": [
        {
          "indexed": true,
          "internalType": "uint256",
          "name": "pollId",
          "type": "uint256"
        },
        {
          "indexed": false,
          "internalType": "string",
          "name": "question",
          "type": "string"
        },
        {
          "indexed": false,
          "internalType": "uint256[]",
          "name": "results",
          "type": "uint256[]"
        }
      ],
      "name": "PollFinished",
      "type": "event"
    },
    {
      "anonymous": false,
      "inputs": [
        {
          "indexed": true,
          "internalType": "uint256",
          "name": "pollId",
          "type": "uint256"
        },
        {
          "indexed": false,
          "internalType": "string",
          "name": "option",
          "type": "string"
        }
      ],
      "name": "PollOptionAdded",
      "type": "event"
    },
    {
      "inputs": [],
      "name": "pollCount",
      "outputs": [
        {
          "internalType": "uint256",
          "name": "",
          "type": "uint256"
        }
      ],
      "stateMutability": "view",
      "type": "function",
      "constant": true
    },
    {
      "inputs": [
        {
          "internalType": "uint256",
          "name": "",
          "type": "uint256"
        }
      ],
      "name": "polls",
      "outputs": [
        {
          "internalType": "address",
          "name": "creator",
          "type": "address"
        },
        {
          "internalType": "string",
          "name": "question",
          "type": "string"
        },
        {
          "internalType": "bool",
          "name": "finished",
          "type": "bool"
        }
      ],
      "stateMutability": "view",
      "type": "function",
      "constant": true
    },
    {
      "inputs": [
        {
          "internalType": "string",
          "name": "_question",
          "type": "string"
        }
      ],
      "name": "createPoll",
      "outputs": [],
      "stateMutability": "nonpayable",
      "type": "function"
    },
    {
      "inputs": [
        {
          "internalType": "uint256",
          "name": "_pollId",
          "type": "uint256"
        },
        {
          "internalType": "string",
          "name": "_option",
          "type": "string"
        }
      ],
      "name": "addOption",
      "outputs": [],
      "stateMutability": "nonpayable",
      "type": "function"
    },
    {
      "inputs": [
        {
          "internalType": "uint256",
          "name": "_pollId",
          "type": "uint256"
        },
        {
          "internalType": "uint256",
          "name": "_optionIndex",
          "type": "uint256"
        }
      ],
      "name": "vote",
      "outputs": [],
      "stateMutability": "nonpayable",
      "type": "function"
    },
    {
      "inputs": [
        {
          "internalType": "uint256",
          "name": "_pollId",
          "type": "uint256"
        }
      ],
      "name": "getPollOptions",
      "outputs": [
        {
          "internalType": "string[]",
          "name": "",
          "type": "string[]"
        }
      ],
      "stateMutability": "view",
      "type": "function",
      "constant": true
    },
    {
      "inputs": [
        {
          "internalType": "uint256",
          "name": "_pollId",
          "type": "uint256"
        }
      ],
      "name": "finishPoll",
      "outputs": [],
      "stateMutability": "nonpayable",
      "type": "function"
    }
  ],
  "bytecode": "0x608060405234801561001057600080fd5b50610cec806100206000396000f3fe608060405234801561001057600080fd5b506004361061007d5760003560e01c8063ac2f00741161005b578063ac2f0074146100c8578063b384abef146100ea578063ea57d5d4146100fd578063f7562765146101105761007d565b806329c477091461008257806374a9ced9146100975780639207891d146100aa575b600080fd5b61009561009036600461086e565b610130565b005b6100956100a5366004610833565b610323565b6100b26103d4565b6040516100bf9190610c07565b60405180910390f35b6100db6100d636600461086e565b6103da565b6040516100bf93929190610971565b6100956100f83660046108cb565b610492565b61009561010b366004610886565b610555565b61012361011e36600461086e565b610608565b6040516100bf91906109a7565b60008111801561014257506001548111155b6101675760405162461bcd60e51b815260040161015e90610b33565b60405180910390fd5b6000818152602081905260409020546001600160a01b0316331461019d5760405162461bcd60e51b815260040161015e90610b5c565b600081815260208190526040812060048101805460ff191660011790556002015467ffffffffffffffff8111156101e457634e487b7160e01b600052604160045260246000fd5b60405190808252806020026020018201604052801561020d578160200160208202803683370190505b50905060005b6000838152602081905260409020600201548110156102d0576000610239826001610c1c565b90506000805b60015481101561028d576000868152602081905260408120600101805461026590610c34565b9050111561027b578161027781610c6f565b9250505b8061028581610c6f565b91505061023f565b50808484815181106102af57634e487b7160e01b600052603260045260246000fd5b602002602001018181525050505080806102c890610c6f565b915050610213565b50817faec1b48de5e97800e4945ddeddb95a01fe9f6fd116277b8461222fa1027e003a60008085815260200190815260200160002060010183604051610317929190610a21565b60405180910390a25050565b60008151116103445760405162461bcd60e51b815260040161015e90610ba0565b6001805490600061035483610c6f565b90915550506001805460009081526020818152604080832080546001600160a01b03191633179055835483529091208351610396939190910191840190610719565b506001547f65d5ac2bf1bca69566bef1affdfca5bb37b9577fc0b3af4c7c4638225e67b39c826040516103c99190610a07565b60405180910390a250565b60015481565b600060208190529081526040902080546001820180546001600160a01b03909216929161040690610c34565b80601f016020809104026020016040519081016040528092919081815260200182805461043290610c34565b801561047f5780601f106104545761010080835404028352916020019161047f565b820191906000526020600020905b81548152906001019060200180831161046257829003601f168201915b5050506004909301549192505060ff1683565b6000821180156104a457506001548211155b6104c05760405162461bcd60e51b815260040161015e90610b33565b60008281526020819052604090206002015481106104f05760405162461bcd60e51b815260040161015e90610ade565b600082815260208181526040808320338452600301909152902054156105285760405162461bcd60e51b815260040161015e90610b0c565b610533816001610c1c565b6000928352602083815260408085203386526003019091529092209190915550565b60008211801561056757506001548211155b6105835760405162461bcd60e51b815260040161015e90610b33565b60008151116105a45760405162461bcd60e51b815260040161015e90610bd7565b600082815260208181526040822060020180546001810182559083529181902083516105d7939190910191840190610719565b50817f3db1a4758edbe4ae6e55891e79195b6aeb92d7f8269bf51d6b74e207b09b13ef826040516103179190610a07565b606060008211801561061c57506001548211155b6106385760405162461bcd60e51b815260040161015e90610b33565b60008281526020818152604080832060020180548251818502810185019093528083529193909284015b8282101561070e57838290600052602060002001805461068190610c34565b80601f01602080910402602001604051908101604052809291908181526020018280546106ad90610c34565b80156106fa5780601f106106cf576101008083540402835291602001916106fa565b820191906000526020600020905b8154815290600101906020018083116106dd57829003601f168201915b505050505081526020019060010190610662565b505050509050919050565b82805461072590610c34565b90600052602060002090601f016020900481019282610747576000855561078d565b82601f1061076057805160ff191683800117855561078d565b8280016001018555821561078d579182015b8281111561078d578251825591602001919060010190610772565b5061079992915061079d565b5090565b5b80821115610799576000815560010161079e565b600082601f8301126107c2578081fd5b813567ffffffffffffffff808211156107dd576107dd610ca0565b604051601f8301601f19168101602001828111828210171561080157610801610ca0565b604052828152848301602001861015610818578384fd5b82602086016020830137918201602001929092529392505050565b600060208284031215610844578081fd5b813567ffffffffffffffff81111561085a578182fd5b610866848285016107b2565b949350505050565b60006020828403121561087f578081fd5b5035919050565b60008060408385031215610898578081fd5b82359150602083013567ffffffffffffffff8111156108b5578182fd5b6108c1858286016107b2565b9150509250929050565b600080604083850312156108dd578182fd5b50508035926020909101359150565b6000815180845260208085019450808401835b8381101561091b578151875295820195908201906001016108ff565b509495945050505050565b60008151808452815b8181101561094b5760208185018101518683018201520161092f565b8181111561095c5782602083870101525b50601f01601f19169290920160200192915050565b6001600160a01b038416815260606020820181905260009061099590830185610926565b90508215156040830152949350505050565b6000602080830181845280855180835260408601915060408482028701019250838701855b828110156109fa57603f198886030184526109e8858351610926565b945092850192908501906001016109cc565b5092979650505050505050565b600060208252610a1a6020830184610926565b9392505050565b604081528254600090819060028104600180831680610a4157607f831692505b6020808410821415610a6157634e487b7160e01b87526022600452602487fd5b610a6e8460408a01610c07565b828015610a825760018114610a9357610abd565b60ff19871682528282019750610abd565b610a9c8c610c10565b895b87811015610ab757815484820152908601908401610a9e565b83019850505b5050878603818901525050505050610ad581856108ec565b95945050505050565b602080825260149082015273092dcecc2d8d2c840dee0e8d2dedc40d2dcc8caf60631b604082015260600190565b6020808252600d908201526c105b1c9958591e481d9bdd1959609a1b604082015260600190565b6020808252600f908201526e125b9d985b1a59081c1bdb1b081251608a1b604082015260600190565b60208082526024908201527f4f6e6c79207468652063726561746f722063616e2066696e69736820746865206040820152631c1bdb1b60e21b606082015260800190565b60208082526018908201527f5175657374696f6e2063616e6e6f7420626520656d7074790000000000000000604082015260600190565b6020808252601690820152754f7074696f6e2063616e6e6f7420626520656d70747960501b604082015260600190565b90815260200190565b60009081526020902090565b60008219821115610c2f57610c2f610c8a565b500190565b600281046001821680610c4857607f821691505b60208210811415610c6957634e487b7160e01b600052602260045260246000fd5b50919050565b6000600019821415610c8357610c83610c8a565b5060010190565b634e487b7160e01b600052601160045260246000fd5b634e487b7160e01b600052604160045260246000fdfea26469706673582212202c06f741b0074bf29d6ece82b77799587a5280df032e50a4fffb659ffd262e3564736f6c63430008000033",
  "immutableReferences": {},
  "source": "pragma solidity ^0.8.0;\r\n\r\ncontract Poll {\r\n    struct PollData {\r\n        address creator;\r\n        string question;\r\n        string[] options;\r\n        mapping(address => uint256) votes; // Changed uint to uint256\r\n        bool finished;\r\n    }\r\n\r\n    mapping(uint256 => PollData) public polls; // Changed uint to uint256\r\n    uint256 public pollCount; // Changed uint to uint256\r\n\r\n    event PollCreated(uint256 indexed pollId, string question); // Changed uint to uint256\r\n    event PollOptionAdded(uint256 indexed pollId, string option); // Changed uint to uint256\r\n    event PollFinished(uint256 indexed pollId, string question, uint256[] results); // Changed uint to uint256\r\n\r\n    function createPoll(string memory _question) public {\r\n        require(bytes(_question).length > 0, \"Question cannot be empty\");\r\n\r\n        pollCount++;\r\n        polls[pollCount].creator = msg.sender;\r\n        polls[pollCount].question = _question;\r\n        emit PollCreated(pollCount, _question);\r\n    }\r\n\r\n    function addOption(uint256 _pollId, string memory _option) public { // Changed uint to uint256\r\n        require(_pollId > 0 && _pollId <= pollCount, \"Invalid poll ID\");\r\n        require(bytes(_option).length > 0, \"Option cannot be empty\");\r\n\r\n        polls[_pollId].options.push(_option);\r\n        emit PollOptionAdded(_pollId, _option);\r\n    }\r\n\r\n    function vote(uint256 _pollId, uint256 _optionIndex) public { // Changed uint to uint256\r\n        require(_pollId > 0 && _pollId <= pollCount, \"Invalid poll ID\");\r\n        require(_optionIndex < polls[_pollId].options.length, \"Invalid option index\"); // Removed check for _optionIndex >= 0\r\n        require(polls[_pollId].votes[msg.sender] == 0, \"Already voted\");\r\n\r\n        polls[_pollId].votes[msg.sender] = _optionIndex + 1;\r\n    }\r\n\r\n    function getPollOptions(uint256 _pollId) public view returns (string[] memory) { // Changed uint to uint256\r\n        require(_pollId > 0 && _pollId <= pollCount, \"Invalid poll ID\");\r\n        return polls[_pollId].options;\r\n    }\r\n\r\n    function finishPoll(uint256 _pollId) public { // Changed uint to uint256\r\n        require(_pollId > 0 && _pollId <= pollCount, \"Invalid poll ID\");\r\n        require(msg.sender == polls[_pollId].creator, \"Only the creator can finish the poll\");\r\n\r\n        polls[_pollId].finished = true;\r\n\r\n        // Emit event with results\r\n        uint256[] memory results = new uint256[](polls[_pollId].options.length);\r\n        for (uint256 i = 0; i < polls[_pollId].options.length; i++) {\r\n            uint256 optionIndex = i + 1;\r\n            uint256 voteCount = 0;\r\n            for (uint256 j = 0; j < pollCount; j++) {\r\n                if (bytes(polls[_pollId].question).length > 0) {\r\n                    voteCount++;\r\n                }\r\n            }\r\n            results[i] = voteCount;\r\n        }\r\n        emit PollFinished(_pollId, polls[_pollId].question, results);\r\n    }\r\n}\r\n",
  "sourcePath": "C:\\Users\\UF\\Desktop\\Github\\ChoiceMaker\\contracts\\Poll.sol",
  "compiler": {
    "name": "solc",
    "version": "0.8.0+commit.c7dfd78e.Emscripten.clang"
  },
  "schemaVersion": "3.4.16",
  "updatedAt": "2024-05-07T16:35:28.151Z",
  "networkType": "ethereum",
  "devdoc": {
    "kind": "dev",
    "methods": {},
    "version": 1
  },
  "userdoc": {
    "kind": "user",
    "methods": {},
    "version": 1
  }
}