{
  "contractName": "Poll",
  "abi": [
    {
      "anonymous": false,
      "inputs": [
        {
          "indexed": true,
          "internalType": "uint256",
          "name": "pollId",
          "type": "uint256"
        },
        {
          "indexed": false,
          "internalType": "string",
          "name": "question",
          "type": "string"
        }
      ],
      "name": "PollCreated",
      "type": "event"
    },
    {
      "anonymous": false,
      "inputs": [
        {
          "indexed": true,
          "internalType": "uint256",
          "name": "pollId",
          "type": "uint256"
        },
        {
          "indexed": false,
          "internalType": "string",
          "name": "question",
          "type": "string"
        }
      ],
      "name": "PollFinished",
      "type": "event"
    },
    {
      "anonymous": false,
      "inputs": [
        {
          "indexed": true,
          "internalType": "uint256",
          "name": "pollId",
          "type": "uint256"
        },
        {
          "indexed": false,
          "internalType": "string",
          "name": "option",
          "type": "string"
        },
        {
          "indexed": false,
          "internalType": "string",
          "name": "option2",
          "type": "string"
        }
      ],
      "name": "PollOptionAdded",
      "type": "event"
    },
    {
      "anonymous": false,
      "inputs": [
        {
          "indexed": true,
          "internalType": "uint256",
          "name": "pollId",
          "type": "uint256"
        },
        {
          "indexed": false,
          "internalType": "address",
          "name": "voter",
          "type": "address"
        },
        {
          "indexed": false,
          "internalType": "uint256",
          "name": "optionIndex",
          "type": "uint256"
        }
      ],
      "name": "PollVoted",
      "type": "event"
    },
    {
      "inputs": [],
      "name": "pollCount",
      "outputs": [
        {
          "internalType": "uint256",
          "name": "",
          "type": "uint256"
        }
      ],
      "stateMutability": "view",
      "type": "function",
      "constant": true
    },
    {
      "inputs": [
        {
          "internalType": "uint256",
          "name": "",
          "type": "uint256"
        }
      ],
      "name": "polls",
      "outputs": [
        {
          "internalType": "address",
          "name": "creator",
          "type": "address"
        },
        {
          "internalType": "string",
          "name": "question",
          "type": "string"
        },
        {
          "internalType": "uint256",
          "name": "companyId",
          "type": "uint256"
        },
        {
          "internalType": "bool",
          "name": "finished",
          "type": "bool"
        }
      ],
      "stateMutability": "view",
      "type": "function",
      "constant": true
    },
    {
      "inputs": [
        {
          "internalType": "string",
          "name": "_question",
          "type": "string"
        },
        {
          "internalType": "uint256",
          "name": "_companyId",
          "type": "uint256"
        }
      ],
      "name": "createPoll",
      "outputs": [],
      "stateMutability": "nonpayable",
      "type": "function"
    },
    {
      "inputs": [
        {
          "internalType": "uint256",
          "name": "_pollId",
          "type": "uint256"
        },
        {
          "internalType": "string",
          "name": "_option",
          "type": "string"
        }
      ],
      "name": "addPollOption",
      "outputs": [],
      "stateMutability": "nonpayable",
      "type": "function"
    },
    {
      "inputs": [
        {
          "internalType": "uint256",
          "name": "_pollId",
          "type": "uint256"
        },
        {
          "internalType": "uint256",
          "name": "_optionIndex",
          "type": "uint256"
        },
        {
          "internalType": "uint256",
          "name": "_companyId",
          "type": "uint256"
        }
      ],
      "name": "vote",
      "outputs": [],
      "stateMutability": "nonpayable",
      "type": "function"
    },
    {
      "inputs": [
        {
          "internalType": "uint256",
          "name": "_pollId",
          "type": "uint256"
        },
        {
          "internalType": "uint256",
          "name": "_optionId",
          "type": "uint256"
        }
      ],
      "name": "getPollOption",
      "outputs": [
        {
          "internalType": "string",
          "name": "",
          "type": "string"
        }
      ],
      "stateMutability": "view",
      "type": "function",
      "constant": true
    },
    {
      "inputs": [
        {
          "internalType": "uint256",
          "name": "_pollId",
          "type": "uint256"
        }
      ],
      "name": "finishPoll",
      "outputs": [],
      "stateMutability": "nonpayable",
      "type": "function"
    },
    {
      "inputs": [
        {
          "internalType": "uint256",
          "name": "_pollId",
          "type": "uint256"
        },
        {
          "internalType": "uint256",
          "name": "_optionId",
          "type": "uint256"
        }
      ],
      "name": "getPollResults",
      "outputs": [
        {
          "internalType": "uint256",
          "name": "",
          "type": "uint256"
        }
      ],
      "stateMutability": "view",
      "type": "function",
      "constant": true
    }
  ],
  "bytecode": "0x608060405234801561001057600080fd5b50610ecf806100206000396000f3fe608060405234801561001057600080fd5b50600436106100885760003560e01c80639207891d1161005b5780639207891d146100f1578063ac2f0074146100f9578063c4bd10d91461011c578063c7449cb71461013c57610088565b806329c477091461008d578063425cdbb5146100a25780638a6655d6146100cb5780638bfc405d146100de575b600080fd5b6100a061009b3660046109cd565b61014f565b005b6100b56100b0366004610a2a565b61024d565b6040516100c29190610dd3565b60405180910390f35b6100a06100d9366004610a4b565b61036b565b6100a06100ec3660046109e5565b6104b8565b6100b5610600565b61010c6101073660046109cd565b610606565b6040516100c29493929190610b62565b61012f61012a366004610a2a565b6106c5565b6040516100c29190610bb7565b6100a061014a36600461098a565b6107c3565b60008111801561016157506001548111155b6101865760405162461bcd60e51b815260040161017d90610c9a565b60405180910390fd5b6000818152602081905260409020546001600160a01b031633146101bc5760405162461bcd60e51b815260040161017d90610cc3565b60008181526020819052604090206006015460ff16156101ee5760405162461bcd60e51b815260040161017d90610c12565b6000818152602081905260409081902060068101805460ff19166001908117909155915183927ff8038175be0cd1fc10bf18976ecdc0af119bc90bb352002f12fc20eb0822d7b59261024292910190610bff565b60405180910390a250565b6000808311801561026057506001548311155b61027c5760405162461bcd60e51b815260040161017d90610c9a565b60008381526020819052604090206006015460ff166102ad5760405162461bcd60e51b815260040161017d90610c41565b600083815260208181526040808320815160028082526060820184529194939092908301908036833701905050905060005b6002811015610338576000818152600584016020526040902054825183908390811061031b57634e487b7160e01b600052603260045260246000fd5b60209081029190910101528061033081610e52565b9150506102df565b5080848151811061035957634e487b7160e01b600052603260045260246000fd5b60200260200101519250505092915050565b60008311801561037d57506001548311155b6103995760405162461bcd60e51b815260040161017d90610c9a565b60008381526020819052604090206002015482106103c95760405162461bcd60e51b815260040161017d90610c6c565b600083815260208181526040808320338452600401909152902054156104015760405162461bcd60e51b815260040161017d90610d6c565b60008381526020819052604090206003015481146104315760405162461bcd60e51b815260040161017d90610d9c565b61043c826001610de8565b600084815260208181526040808320338452600481018352818420949094558583526005909301905290812080549161047483610e52565b9190505550827f41b9ea38e0dca627a5a8588a7edd2198d6d8e43ec5a6161fa126559a0eb5701433846040516104ab929190610b9e565b60405180910390a2505050565b6000821180156104ca57506001548211155b6104e65760405162461bcd60e51b815260040161017d90610c9a565b60008151116105075760405162461bcd60e51b815260040161017d90610d3c565b6000828152602081905260409020546001600160a01b0316331461053d5760405162461bcd60e51b815260040161017d90610d07565b60008281526020818152604082206002018054600181018255908352918190208351610570939190910191840190610870565b5060008281526020819052604081206002015461058f90600190610e00565b9050827f3e0a1ddc1adbadd3bd5aad68093650c4ae88d8332ea32fe574f7d876b0e4e7678360008087815260200190815260200160002060020184815481106105e857634e487b7160e01b600052603260045260246000fd5b906000526020600020016040516104ab929190610bd1565b60015481565b600060208190529081526040902080546001820180546001600160a01b03909216929161063290610e17565b80601f016020809104026020016040519081016040528092919081815260200182805461065e90610e17565b80156106ab5780601f10610680576101008083540402835291602001916106ab565b820191906000526020600020905b81548152906001019060200180831161068e57829003601f168201915b50505050600383015460069093015491929160ff16905084565b60606000831180156106d957506001548311155b6106f55760405162461bcd60e51b815260040161017d90610c9a565b60008381526020819052604090206002810180548490811061072757634e487b7160e01b600052603260045260246000fd5b90600052602060002001805461073c90610e17565b80601f016020809104026020016040519081016040528092919081815260200182805461076890610e17565b80156107b55780601f1061078a576101008083540402835291602001916107b5565b820191906000526020600020905b81548152906001019060200180831161079857829003601f168201915b505050505091505092915050565b600180549060006107d383610e52565b90915550506001805460009081526020818152604080832080546001600160a01b03191633179055835483529091208451610815939190910191850190610870565b50806000806001548152602001908152602001600020600301819055506001547f65d5ac2bf1bca69566bef1affdfca5bb37b9577fc0b3af4c7c4638225e67b39c836040516108649190610bb7565b60405180910390a25050565b82805461087c90610e17565b90600052602060002090601f01602090048101928261089e57600085556108e4565b82601f106108b757805160ff19168380011785556108e4565b828001600101855582156108e4579182015b828111156108e45782518255916020019190600101906108c9565b506108f09291506108f4565b5090565b5b808211156108f057600081556001016108f5565b600082601f830112610919578081fd5b813567ffffffffffffffff8082111561093457610934610e83565b604051601f8301601f19168101602001828111828210171561095857610958610e83565b60405282815284830160200186101561096f578384fd5b82602086016020830137918201602001929092529392505050565b6000806040838503121561099c578182fd5b823567ffffffffffffffff8111156109b2578283fd5b6109be85828601610909565b95602094909401359450505050565b6000602082840312156109de578081fd5b5035919050565b600080604083850312156109f7578182fd5b82359150602083013567ffffffffffffffff811115610a14578182fd5b610a2085828601610909565b9150509250929050565b60008060408385031215610a3c578182fd5b50508035926020909101359150565b600080600060608486031215610a5f578081fd5b505081359360208301359350604090920135919050565b60008151808452815b81811015610a9b57602081850181015186830182015201610a7f565b81811115610aac5782602083870101525b50601f01601f19169290920160200192915050565b805460009060028104600180831680610adb57607f831692505b6020808410821415610afb57634e487b7160e01b86526022600452602486fd5b610b058489610dd3565b828015610b195760018114610b2a57610b55565b60ff19871682528282019750610b55565b610b3389610ddc565b60005b87811015610b4f57815484820152908601908401610b36565b83019850505b5050505050505092915050565b6001600160a01b0385168152608060208201819052600090610b8690830186610a76565b60408301949094525090151560609091015292915050565b6001600160a01b03929092168252602082015260400190565b600060208252610bca6020830184610a76565b9392505050565b600060408252610be46040830185610a76565b8281036020840152610bf68185610ac1565b95945050505050565b600060208252610bca6020830184610ac1565b602080825260159082015274141bdb1b08185b1c9958591e48199a5b9a5cda1959605a1b604082015260600190565b602080825260119082015270141bdb1b081b9bdd08199a5b9a5cda1959607a1b604082015260600190565b602080825260149082015273092dcecc2d8d2c840dee0e8d2dedc40d2dcc8caf60631b604082015260600190565b6020808252600f908201526e125b9d985b1a59081c1bdb1b081251608a1b604082015260600190565b60208082526024908201527f4f6e6c79207468652063726561746f722063616e2066696e69736820746865206040820152631c1bdb1b60e21b606082015260800190565b6020808252818101527f4f6e6c79207468652063726561746f722063616e20616464206f7074696f6e73604082015260600190565b6020808252601690820152754f7074696f6e2063616e6e6f7420626520656d70747960501b604082015260600190565b602080825260169082015275165bdd481a185d9948185b1c9958591e481d9bdd195960521b604082015260600190565b6020808252601e908201527f596f75206172652066726f6d20646966666572656e7420436f6d70616e790000604082015260600190565b90815260200190565b60009081526020902090565b60008219821115610dfb57610dfb610e6d565b500190565b600082821015610e1257610e12610e6d565b500390565b600281046001821680610e2b57607f821691505b60208210811415610e4c57634e487b7160e01b600052602260045260246000fd5b50919050565b6000600019821415610e6657610e66610e6d565b5060010190565b634e487b7160e01b600052601160045260246000fd5b634e487b7160e01b600052604160045260246000fdfea26469706673582212202078a8e5067286b113f81fa00b4008331621e8c8750e50d5b58a1adba9a8fa9664736f6c63430008000033",
  "immutableReferences": {},
  "source": "pragma solidity ^0.8.0;\r\n\r\ncontract Poll {\r\n    struct PollData {\r\n        address creator;\r\n        string question;\r\n        string[] options;\r\n        uint256 companyId;\r\n        mapping(address => uint256) voters;\r\n        mapping(uint256 => uint256) votes;\r\n        bool finished;\r\n    }\r\n\r\n    mapping(uint256 => PollData) public polls;\r\n    uint256 public pollCount;\r\n\r\n    event PollCreated(uint256 indexed pollId, string question); \r\n    event PollOptionAdded(uint256 indexed pollId, string option, string option2); \r\n    event PollVoted(uint256 indexed pollId, address voter, uint256 optionIndex);\r\n    event PollFinished(uint256 indexed pollId, string question); \r\n\r\n    function createPoll(string memory _question, uint256 _companyId) public {\r\n        pollCount++;\r\n        polls[pollCount].creator = msg.sender;\r\n        polls[pollCount].question = _question;\r\n        polls[pollCount].companyId = _companyId;\r\n        emit PollCreated(pollCount, _question);\r\n    }\r\n\r\n    function addPollOption(uint256 _pollId, string memory _option) public { \r\n        require(_pollId > 0 && _pollId <= pollCount, \"Invalid poll ID\");\r\n        require(bytes(_option).length > 0, \"Option cannot be empty\");\r\n        require(msg.sender == polls[_pollId].creator, \"Only the creator can add options\");\r\n        polls[_pollId].options.push(_option);\r\n\r\n        uint lastIndex = polls[_pollId].options.length-1;\r\n\r\n        emit PollOptionAdded(_pollId, _option, polls[_pollId].options[lastIndex]);\r\n    }\r\n\r\n    function vote(uint256 _pollId, uint256 _optionIndex, uint256 _companyId) public { \r\n        require(_pollId > 0 && _pollId <= pollCount, \"Invalid poll ID\");\r\n        require(_optionIndex < polls[_pollId].options.length, \"Invalid option index\"); // Removed check for _optionIndex >= 0\r\n        require(polls[_pollId].voters[msg.sender] == 0, \"You have already voted\");\r\n        require(polls[_pollId].companyId == _companyId, \"You are from different Company\");\r\n\r\n        polls[_pollId].voters[msg.sender] = _optionIndex + 1;\r\n        polls[_pollId].votes[_optionIndex]++;\r\n        emit PollVoted(_pollId, msg.sender, _optionIndex);\r\n    }\r\n\r\n    function getPollOption(uint256 _pollId, uint256 _optionId) public view returns (string memory) { \r\n        require(_pollId > 0 && _pollId <= pollCount, \"Invalid poll ID\");\r\n\r\n        // Fetch the poll from the mapping using the _pollId\r\n        PollData storage poll = polls[_pollId];\r\n\r\n        // Return the options array from the poll\r\n        return poll.options[_optionId];\r\n    }\r\n\r\n    function finishPoll(uint256 _pollId) public { \r\n        require(_pollId > 0 && _pollId <= pollCount, \"Invalid poll ID\");\r\n        require(msg.sender == polls[_pollId].creator, \"Only the creator can finish the poll\");\r\n        require(!polls[_pollId].finished, \"Poll already finished\");\r\n\r\n        polls[_pollId].finished = true;\r\n        emit PollFinished(_pollId, polls[_pollId].question);\r\n    }\r\n\r\n    function getPollResults(uint256 _pollId, uint256 _optionId) public view returns (uint256) { \r\n        require(_pollId > 0 && _pollId <= pollCount, \"Invalid poll ID\");\r\n        require(polls[_pollId].finished, \"Poll not finished\");\r\n\r\n        PollData storage poll = polls[_pollId];\r\n\r\n        uint256[] memory results = new uint256[](2);\r\n\r\n        for (uint256 i = 0; i < 2; i++) {\r\n            results[i] = poll.votes[i];\r\n        }\r\n\r\n        // Return the array of vote counts\r\n        return results[_optionId];\r\n    }\r\n\r\n}\r\n",
  "sourcePath": "C:\\Users\\UF\\Desktop\\Github\\ChoiceMaker\\contracts\\Poll.sol",
  "compiler": {
    "name": "solc",
    "version": "0.8.0+commit.c7dfd78e.Emscripten.clang"
  },
  "schemaVersion": "3.4.16",
  "updatedAt": "2024-05-08T16:34:50.226Z",
  "networkType": "ethereum",
  "devdoc": {
    "kind": "dev",
    "methods": {},
    "version": 1
  },
  "userdoc": {
    "kind": "user",
    "methods": {},
    "version": 1
  }
}