{
  "contractName": "Poll",
  "abi": [
    {
      "anonymous": false,
      "inputs": [
        {
          "indexed": true,
          "internalType": "uint256",
          "name": "pollId",
          "type": "uint256"
        },
        {
          "indexed": false,
          "internalType": "string",
          "name": "question",
          "type": "string"
        }
      ],
      "name": "PollCreated",
      "type": "event"
    },
    {
      "anonymous": false,
      "inputs": [
        {
          "indexed": true,
          "internalType": "uint256",
          "name": "pollId",
          "type": "uint256"
        },
        {
          "indexed": false,
          "internalType": "string",
          "name": "question",
          "type": "string"
        },
        {
          "indexed": false,
          "internalType": "uint256[]",
          "name": "results",
          "type": "uint256[]"
        }
      ],
      "name": "PollFinished",
      "type": "event"
    },
    {
      "anonymous": false,
      "inputs": [
        {
          "indexed": true,
          "internalType": "uint256",
          "name": "pollId",
          "type": "uint256"
        },
        {
          "indexed": false,
          "internalType": "string",
          "name": "option",
          "type": "string"
        }
      ],
      "name": "PollOptionAdded",
      "type": "event"
    },
    {
      "constant": true,
      "inputs": [],
      "name": "pollCount",
      "outputs": [
        {
          "internalType": "uint256",
          "name": "",
          "type": "uint256"
        }
      ],
      "payable": false,
      "stateMutability": "view",
      "type": "function"
    },
    {
      "constant": true,
      "inputs": [
        {
          "internalType": "uint256",
          "name": "",
          "type": "uint256"
        }
      ],
      "name": "polls",
      "outputs": [
        {
          "internalType": "address",
          "name": "creator",
          "type": "address"
        },
        {
          "internalType": "string",
          "name": "question",
          "type": "string"
        },
        {
          "internalType": "bool",
          "name": "finished",
          "type": "bool"
        }
      ],
      "payable": false,
      "stateMutability": "view",
      "type": "function"
    },
    {
      "constant": false,
      "inputs": [
        {
          "internalType": "string",
          "name": "_question",
          "type": "string"
        }
      ],
      "name": "createPoll",
      "outputs": [],
      "payable": false,
      "stateMutability": "nonpayable",
      "type": "function"
    },
    {
      "constant": false,
      "inputs": [
        {
          "internalType": "uint256",
          "name": "_pollId",
          "type": "uint256"
        },
        {
          "internalType": "string",
          "name": "_option",
          "type": "string"
        }
      ],
      "name": "addOption",
      "outputs": [],
      "payable": false,
      "stateMutability": "nonpayable",
      "type": "function"
    },
    {
      "constant": false,
      "inputs": [
        {
          "internalType": "uint256",
          "name": "_pollId",
          "type": "uint256"
        },
        {
          "internalType": "uint256",
          "name": "_optionIndex",
          "type": "uint256"
        }
      ],
      "name": "vote",
      "outputs": [],
      "payable": false,
      "stateMutability": "nonpayable",
      "type": "function"
    },
    {
      "constant": false,
      "inputs": [
        {
          "internalType": "uint256",
          "name": "_pollId",
          "type": "uint256"
        }
      ],
      "name": "finishPoll",
      "outputs": [],
      "payable": false,
      "stateMutability": "nonpayable",
      "type": "function"
    }
  ],
  "bytecode": "0x608060405234801561001057600080fd5b50610ed1806100206000396000f3fe608060405234801561001057600080fd5b50600436106100625760003560e01c806329c477091461006757806374a9ced9146100955780639207891d14610150578063ac2f00741461016e578063b384abef14610253578063ea57d5d41461028b575b600080fd5b6100936004803603602081101561007d57600080fd5b8101908080359060200190929190505050610350565b005b61014e600480360360208110156100ab57600080fd5b81019080803590602001906401000000008111156100c857600080fd5b8201836020820111156100da57600080fd5b803590602001918460018302840111640100000000831117156100fc57600080fd5b91908080601f016020809104026020016040519081016040528093929190818152602001838380828437600081840152601f19601f8201169050808301925050505050505091929192905050506106ff565b005b6101586108ac565b6040518082815260200191505060405180910390f35b61019a6004803603602081101561018457600080fd5b81019080803590602001909291905050506108b2565b604051808473ffffffffffffffffffffffffffffffffffffffff1673ffffffffffffffffffffffffffffffffffffffff1681526020018060200183151515158152602001828103825284818151815260200191508051906020019080838360005b838110156102165780820151818401526020810190506101fb565b50505050905090810190601f1680156102435780820380516001836020036101000a031916815260200191505b5094505050505060405180910390f35b6102896004803603604081101561026957600080fd5b8101908080359060200190929190803590602001909291905050506109a1565b005b61034e600480360360408110156102a157600080fd5b8101908080359060200190929190803590602001906401000000008111156102c857600080fd5b8201836020820111156102da57600080fd5b803590602001918460018302840111640100000000831117156102fc57600080fd5b91908080601f016020809104026020016040519081016040528093929190818152602001838380828437600081840152601f19601f820116905080830192505050505050509192919290505050610be5565b005b60008111801561036257506001548111155b6103d4576040517f08c379a000000000000000000000000000000000000000000000000000000000815260040180806020018281038252600f8152602001807f496e76616c696420706f6c6c204944000000000000000000000000000000000081525060200191505060405180910390fd5b60008082815260200190815260200160002060000160009054906101000a900473ffffffffffffffffffffffffffffffffffffffff1673ffffffffffffffffffffffffffffffffffffffff163373ffffffffffffffffffffffffffffffffffffffff161461048d576040517f08c379a0000000000000000000000000000000000000000000000000000000008152600401808060200182810382526024815260200180610e796024913960400191505060405180910390fd5b600160008083815260200190815260200160002060040160006101000a81548160ff0219169083151502179055506060600080838152602001908152602001600020600201805490506040519080825280602002602001820160405280156105045781602001602082028038833980820191505090505b50905060008090505b600080848152602001908152602001600020600201805490508110156105e3576000600182019050600080905060008090505b6001548110156105ba578260008088815260200190815260200160002060030160008373ffffffffffffffffffffffffffffffffffffffff1673ffffffffffffffffffffffffffffffffffffffff1681526020019081526020016000205414156105ad5781806001019250505b8080600101915050610540565b50808484815181106105c857fe5b6020026020010181815250505050808060010191505061050d565b50817faec1b48de5e97800e4945ddeddb95a01fe9f6fd116277b8461222fa1027e003a600080858152602001908152602001600020600101836040518080602001806020018381038352858181546001816001161561010002031660029004815260200191508054600181600116156101000203166002900480156106a95780601f1061067e576101008083540402835291602001916106a9565b820191906000526020600020905b81548152906001019060200180831161068c57829003601f168201915b5050838103825284818151815260200191508051906020019060200280838360005b838110156106e65780820151818401526020810190506106cb565b5050505090500194505050505060405180910390a25050565b6000815111610776576040517f08c379a00000000000000000000000000000000000000000000000000000000081526004018080602001828103825260188152602001807f5175657374696f6e2063616e6e6f7420626520656d707479000000000000000081525060200191505060405180910390fd5b60016000815480929190600101919050555033600080600154815260200190815260200160002060000160006101000a81548173ffffffffffffffffffffffffffffffffffffffff021916908373ffffffffffffffffffffffffffffffffffffffff1602179055508060008060015481526020019081526020016000206001019080519060200190610809929190610dd3565b506001547f65d5ac2bf1bca69566bef1affdfca5bb37b9577fc0b3af4c7c4638225e67b39c826040518080602001828103825283818151815260200191508051906020019080838360005b8381101561086f578082015181840152602081019050610854565b50505050905090810190601f16801561089c5780820380516001836020036101000a031916815260200191505b509250505060405180910390a250565b60015481565b60006020528060005260406000206000915090508060000160009054906101000a900473ffffffffffffffffffffffffffffffffffffffff1690806001018054600181600116156101000203166002900480601f0160208091040260200160405190810160405280929190818152602001828054600181600116156101000203166002900480156109845780601f1061095957610100808354040283529160200191610984565b820191906000526020600020905b81548152906001019060200180831161096757829003601f168201915b5050505050908060040160009054906101000a900460ff16905083565b6000821180156109b357506001548211155b610a25576040517f08c379a000000000000000000000000000000000000000000000000000000000815260040180806020018281038252600f8152602001807f496e76616c696420706f6c6c204944000000000000000000000000000000000081525060200191505060405180910390fd5b60008110158015610a4d57506000808381526020019081526020016000206002018054905081105b610abf576040517f08c379a00000000000000000000000000000000000000000000000000000000081526004018080602001828103825260148152602001807f496e76616c6964206f7074696f6e20696e64657800000000000000000000000081525060200191505060405180910390fd5b600080600084815260200190815260200160002060030160003373ffffffffffffffffffffffffffffffffffffffff1673ffffffffffffffffffffffffffffffffffffffff1681526020019081526020016000205414610b87576040517f08c379a000000000000000000000000000000000000000000000000000000000815260040180806020018281038252600d8152602001807f416c726561647920766f7465640000000000000000000000000000000000000081525060200191505060405180910390fd5b6001810160008084815260200190815260200160002060030160003373ffffffffffffffffffffffffffffffffffffffff1673ffffffffffffffffffffffffffffffffffffffff168152602001908152602001600020819055505050565b600082118015610bf757506001548211155b610c69576040517f08c379a000000000000000000000000000000000000000000000000000000000815260040180806020018281038252600f8152602001807f496e76616c696420706f6c6c204944000000000000000000000000000000000081525060200191505060405180910390fd5b6000815111610ce0576040517f08c379a00000000000000000000000000000000000000000000000000000000081526004018080602001828103825260168152602001807f4f7074696f6e2063616e6e6f7420626520656d7074790000000000000000000081525060200191505060405180910390fd5b600080838152602001908152602001600020600201819080600181540180825580915050906001820390600052602060002001600090919290919091509080519060200190610d30929190610dd3565b5050817f3db1a4758edbe4ae6e55891e79195b6aeb92d7f8269bf51d6b74e207b09b13ef826040518080602001828103825283818151815260200191508051906020019080838360005b83811015610d95578082015181840152602081019050610d7a565b50505050905090810190601f168015610dc25780820380516001836020036101000a031916815260200191505b509250505060405180910390a25050565b828054600181600116156101000203166002900490600052602060002090601f016020900481019282601f10610e1457805160ff1916838001178555610e42565b82800160010185558215610e42579182015b82811115610e41578251825591602001919060010190610e26565b5b509050610e4f9190610e53565b5090565b610e7591905b80821115610e71576000816000905550600101610e59565b5090565b9056fe4f6e6c79207468652063726561746f722063616e2066696e6973682074686520706f6c6ca265627a7a72315820a4b51ca5402f72750af058570dd34d7e61bc482763af87623fc7667acc51460764736f6c63430005100032",
  "source": "pragma solidity ^0.5.0;\r\n\r\ncontract Poll {\r\n    struct PollData {\r\n        address creator;\r\n        string question;\r\n        string[] options;\r\n        mapping(address => uint) votes;\r\n        bool finished;\r\n    }\r\n\r\n    mapping(uint => PollData) public polls;\r\n    uint public pollCount;\r\n\r\n    event PollCreated(uint indexed pollId, string question);\r\n    event PollOptionAdded(uint indexed pollId, string option);\r\n    event PollFinished(uint indexed pollId, string question, uint[] results);\r\n\r\n    function createPoll(string memory _question) public {\r\n        require(bytes(_question).length > 0, \"Question cannot be empty\");\r\n\r\n        pollCount++;\r\n        polls[pollCount].creator = msg.sender;\r\n        polls[pollCount].question = _question;\r\n        emit PollCreated(pollCount, _question);\r\n    }\r\n\r\n    function addOption(uint _pollId, string memory _option) public {\r\n        require(_pollId > 0 && _pollId <= pollCount, \"Invalid poll ID\");\r\n        require(bytes(_option).length > 0, \"Option cannot be empty\");\r\n\r\n        polls[_pollId].options.push(_option);\r\n        emit PollOptionAdded(_pollId, _option);\r\n    }\r\n\r\n    function vote(uint _pollId, uint _optionIndex) public {\r\n        require(_pollId > 0 && _pollId <= pollCount, \"Invalid poll ID\");\r\n        require(_optionIndex >= 0 && _optionIndex < polls[_pollId].options.length, \"Invalid option index\");\r\n        require(polls[_pollId].votes[msg.sender] == 0, \"Already voted\");\r\n\r\n        polls[_pollId].votes[msg.sender] = _optionIndex + 1;\r\n    }\r\n\r\n    function finishPoll(uint _pollId) public {\r\n        require(_pollId > 0 && _pollId <= pollCount, \"Invalid poll ID\");\r\n        require(msg.sender == polls[_pollId].creator, \"Only the creator can finish the poll\");\r\n\r\n        polls[_pollId].finished = true;\r\n\r\n        // Emit event with results\r\n        uint[] memory results = new uint[](polls[_pollId].options.length);\r\n        for (uint i = 0; i < polls[_pollId].options.length; i++) {\r\n            uint optionIndex = i + 1;\r\n            uint voteCount = 0;\r\n            for (uint j = 0; j < pollCount; j++) {\r\n                if (polls[_pollId].votes[address(j)] == optionIndex) {\r\n                    voteCount++;\r\n                }\r\n            }\r\n            results[i] = voteCount;\r\n        }\r\n        emit PollFinished(_pollId, polls[_pollId].question, results);\r\n    }\r\n}\r\n",
  "sourcePath": "C:\\Users\\UF\\Desktop\\Github\\ChoiceMaker\\contracts\\Poll.sol",
  "compiler": {
    "name": "solc",
    "version": "0.5.16+commit.9c3226ce.Emscripten.clang"
  },
  "schemaVersion": "3.4.16",
  "updatedAt": "2024-04-28T16:37:33.603Z",
  "networkType": "ethereum",
  "devdoc": {
    "methods": {}
  },
  "userdoc": {
    "methods": {}
  }
}