{
  "contractName": "Poll",
  "abi": [
    {
      "anonymous": false,
      "inputs": [
        {
          "indexed": true,
          "internalType": "uint256",
          "name": "pollId",
          "type": "uint256"
        },
        {
          "indexed": false,
          "internalType": "string",
          "name": "question",
          "type": "string"
        }
      ],
      "name": "PollCreated",
      "type": "event"
    },
    {
      "anonymous": false,
      "inputs": [
        {
          "indexed": true,
          "internalType": "uint256",
          "name": "pollId",
          "type": "uint256"
        },
        {
          "indexed": false,
          "internalType": "string",
          "name": "question",
          "type": "string"
        }
      ],
      "name": "PollFinished",
      "type": "event"
    },
    {
      "anonymous": false,
      "inputs": [
        {
          "indexed": true,
          "internalType": "uint256",
          "name": "pollId",
          "type": "uint256"
        },
        {
          "indexed": false,
          "internalType": "string",
          "name": "option",
          "type": "string"
        },
        {
          "indexed": false,
          "internalType": "string",
          "name": "option2",
          "type": "string"
        }
      ],
      "name": "PollOptionAdded",
      "type": "event"
    },
    {
      "anonymous": false,
      "inputs": [
        {
          "indexed": true,
          "internalType": "uint256",
          "name": "pollId",
          "type": "uint256"
        },
        {
          "indexed": false,
          "internalType": "address",
          "name": "voter",
          "type": "address"
        },
        {
          "indexed": false,
          "internalType": "uint256",
          "name": "optionIndex",
          "type": "uint256"
        }
      ],
      "name": "PollVoted",
      "type": "event"
    },
    {
      "inputs": [],
      "name": "pollCount",
      "outputs": [
        {
          "internalType": "uint256",
          "name": "",
          "type": "uint256"
        }
      ],
      "stateMutability": "view",
      "type": "function",
      "constant": true
    },
    {
      "inputs": [
        {
          "internalType": "uint256",
          "name": "",
          "type": "uint256"
        }
      ],
      "name": "polls",
      "outputs": [
        {
          "internalType": "address",
          "name": "creator",
          "type": "address"
        },
        {
          "internalType": "string",
          "name": "question",
          "type": "string"
        },
        {
          "internalType": "uint256",
          "name": "companyId",
          "type": "uint256"
        },
        {
          "internalType": "bool",
          "name": "finished",
          "type": "bool"
        }
      ],
      "stateMutability": "view",
      "type": "function",
      "constant": true
    },
    {
      "inputs": [
        {
          "internalType": "string",
          "name": "_question",
          "type": "string"
        }
      ],
      "name": "createPoll",
      "outputs": [],
      "stateMutability": "nonpayable",
      "type": "function"
    },
    {
      "inputs": [
        {
          "internalType": "uint256",
          "name": "_pollId",
          "type": "uint256"
        },
        {
          "internalType": "string",
          "name": "_option",
          "type": "string"
        }
      ],
      "name": "addPollOption",
      "outputs": [],
      "stateMutability": "nonpayable",
      "type": "function"
    },
    {
      "inputs": [
        {
          "internalType": "uint256",
          "name": "_pollId",
          "type": "uint256"
        },
        {
          "internalType": "uint256",
          "name": "_optionIndex",
          "type": "uint256"
        }
      ],
      "name": "vote",
      "outputs": [],
      "stateMutability": "nonpayable",
      "type": "function"
    },
    {
      "inputs": [
        {
          "internalType": "uint256",
          "name": "_pollId",
          "type": "uint256"
        },
        {
          "internalType": "uint256",
          "name": "_optionId",
          "type": "uint256"
        }
      ],
      "name": "getPollOption",
      "outputs": [
        {
          "internalType": "string",
          "name": "",
          "type": "string"
        }
      ],
      "stateMutability": "view",
      "type": "function",
      "constant": true
    },
    {
      "inputs": [
        {
          "internalType": "uint256",
          "name": "_pollId",
          "type": "uint256"
        }
      ],
      "name": "finishPoll",
      "outputs": [],
      "stateMutability": "nonpayable",
      "type": "function"
    },
    {
      "inputs": [
        {
          "internalType": "uint256",
          "name": "_pollId",
          "type": "uint256"
        },
        {
          "internalType": "uint256",
          "name": "_optionId",
          "type": "uint256"
        }
      ],
      "name": "getPollResults",
      "outputs": [
        {
          "internalType": "uint256",
          "name": "",
          "type": "uint256"
        }
      ],
      "stateMutability": "view",
      "type": "function",
      "constant": true
    }
  ],
  "bytecode": "0x608060405234801561001057600080fd5b50610e19806100206000396000f3fe608060405234801561001057600080fd5b50600436106100885760003560e01c80639207891d1161005b5780639207891d146100f1578063ac2f0074146100f9578063b384abef1461011c578063c4bd10d91461012f57610088565b806329c477091461008d578063425cdbb5146100a257806374a9ced9146100cb5780638bfc405d146100de575b600080fd5b6100a061009b366004610979565b61014f565b005b6100b56100b03660046109d6565b61024d565b6040516100c29190610d1d565b60405180910390f35b6100a06100d936600461093e565b61036b565b6100a06100ec366004610991565b6103f0565b6100b5610545565b61010c610107366004610979565b61054b565b6040516100c29493929190610ae3565b6100a061012a3660046109d6565b61060a565b61014261013d3660046109d6565b610726565b6040516100c29190610b38565b60008111801561016157506001548111155b6101865760405162461bcd60e51b815260040161017d90610c1b565b60405180910390fd5b6000818152602081905260409020546001600160a01b031633146101bc5760405162461bcd60e51b815260040161017d90610c44565b60008181526020819052604090206006015460ff16156101ee5760405162461bcd60e51b815260040161017d90610b93565b6000818152602081905260409081902060068101805460ff19166001908117909155915183927ff8038175be0cd1fc10bf18976ecdc0af119bc90bb352002f12fc20eb0822d7b59261024292910190610b80565b60405180910390a250565b6000808311801561026057506001548311155b61027c5760405162461bcd60e51b815260040161017d90610c1b565b60008381526020819052604090206006015460ff166102ad5760405162461bcd60e51b815260040161017d90610bc2565b600083815260208181526040808320815160028082526060820184529194939092908301908036833701905050905060005b6002811015610338576000818152600584016020526040902054825183908390811061031b57634e487b7160e01b600052603260045260246000fd5b60209081029190910101528061033081610d9c565b9150506102df565b5080848151811061035957634e487b7160e01b600052603260045260246000fd5b60200260200101519250505092915050565b6001805490600061037b83610d9c565b90915550506001805460009081526020818152604080832080546001600160a01b031916331790558354835290912083516103bd939190910191840190610824565b506001547f65d5ac2bf1bca69566bef1affdfca5bb37b9577fc0b3af4c7c4638225e67b39c826040516102429190610b38565b60008211801561040257506001548211155b61041e5760405162461bcd60e51b815260040161017d90610c1b565b600081511161043f5760405162461bcd60e51b815260040161017d90610cbd565b6000828152602081905260409020546001600160a01b031633146104755760405162461bcd60e51b815260040161017d90610c88565b600082815260208181526040822060020180546001810182559083529181902083516104a8939190910191840190610824565b506000828152602081905260408120600201546104c790600190610d4a565b9050827f3e0a1ddc1adbadd3bd5aad68093650c4ae88d8332ea32fe574f7d876b0e4e76783600080878152602001908152602001600020600201848154811061052057634e487b7160e01b600052603260045260246000fd5b90600052602060002001604051610538929190610b52565b60405180910390a2505050565b60015481565b600060208190529081526040902080546001820180546001600160a01b03909216929161057790610d61565b80601f01602080910402602001604051908101604052809291908181526020018280546105a390610d61565b80156105f05780601f106105c5576101008083540402835291602001916105f0565b820191906000526020600020905b8154815290600101906020018083116105d357829003601f168201915b50505050600383015460069093015491929160ff16905084565b60008211801561061c57506001548211155b6106385760405162461bcd60e51b815260040161017d90610c1b565b60008281526020819052604090206002015481106106685760405162461bcd60e51b815260040161017d90610bed565b600082815260208181526040808320338452600401909152902054156106a05760405162461bcd60e51b815260040161017d90610ced565b6106ab816001610d32565b60008381526020818152604080832033845260048101835281842094909455848352600590930190529081208054916106e383610d9c565b9190505550817f41b9ea38e0dca627a5a8588a7edd2198d6d8e43ec5a6161fa126559a0eb57014338360405161071a929190610b1f565b60405180910390a25050565b606060008311801561073a57506001548311155b6107565760405162461bcd60e51b815260040161017d90610c1b565b60008381526020819052604090206002810180548490811061078857634e487b7160e01b600052603260045260246000fd5b90600052602060002001805461079d90610d61565b80601f01602080910402602001604051908101604052809291908181526020018280546107c990610d61565b80156108165780601f106107eb57610100808354040283529160200191610816565b820191906000526020600020905b8154815290600101906020018083116107f957829003601f168201915b505050505091505092915050565b82805461083090610d61565b90600052602060002090601f0160209004810192826108525760008555610898565b82601f1061086b57805160ff1916838001178555610898565b82800160010185558215610898579182015b8281111561089857825182559160200191906001019061087d565b506108a49291506108a8565b5090565b5b808211156108a457600081556001016108a9565b600082601f8301126108cd578081fd5b813567ffffffffffffffff808211156108e8576108e8610dcd565b604051601f8301601f19168101602001828111828210171561090c5761090c610dcd565b604052828152848301602001861015610923578384fd5b82602086016020830137918201602001929092529392505050565b60006020828403121561094f578081fd5b813567ffffffffffffffff811115610965578182fd5b610971848285016108bd565b949350505050565b60006020828403121561098a578081fd5b5035919050565b600080604083850312156109a3578081fd5b82359150602083013567ffffffffffffffff8111156109c0578182fd5b6109cc858286016108bd565b9150509250929050565b600080604083850312156109e8578182fd5b50508035926020909101359150565b60008151808452815b81811015610a1c57602081850181015186830182015201610a00565b81811115610a2d5782602083870101525b50601f01601f19169290920160200192915050565b805460009060028104600180831680610a5c57607f831692505b6020808410821415610a7c57634e487b7160e01b86526022600452602486fd5b610a868489610d1d565b828015610a9a5760018114610aab57610ad6565b60ff19871682528282019750610ad6565b610ab489610d26565b60005b87811015610ad057815484820152908601908401610ab7565b83019850505b5050505050505092915050565b6001600160a01b0385168152608060208201819052600090610b07908301866109f7565b60408301949094525090151560609091015292915050565b6001600160a01b03929092168252602082015260400190565b600060208252610b4b60208301846109f7565b9392505050565b600060408252610b6560408301856109f7565b8281036020840152610b778185610a42565b95945050505050565b600060208252610b4b6020830184610a42565b602080825260159082015274141bdb1b08185b1c9958591e48199a5b9a5cda1959605a1b604082015260600190565b602080825260119082015270141bdb1b081b9bdd08199a5b9a5cda1959607a1b604082015260600190565b602080825260149082015273092dcecc2d8d2c840dee0e8d2dedc40d2dcc8caf60631b604082015260600190565b6020808252600f908201526e125b9d985b1a59081c1bdb1b081251608a1b604082015260600190565b60208082526024908201527f4f6e6c79207468652063726561746f722063616e2066696e69736820746865206040820152631c1bdb1b60e21b606082015260800190565b6020808252818101527f4f6e6c79207468652063726561746f722063616e20616464206f7074696f6e73604082015260600190565b6020808252601690820152754f7074696f6e2063616e6e6f7420626520656d70747960501b604082015260600190565b602080825260169082015275165bdd481a185d9948185b1c9958591e481d9bdd195960521b604082015260600190565b90815260200190565b60009081526020902090565b60008219821115610d4557610d45610db7565b500190565b600082821015610d5c57610d5c610db7565b500390565b600281046001821680610d7557607f821691505b60208210811415610d9657634e487b7160e01b600052602260045260246000fd5b50919050565b6000600019821415610db057610db0610db7565b5060010190565b634e487b7160e01b600052601160045260246000fd5b634e487b7160e01b600052604160045260246000fdfea264697066735822122001f7f3677cda513dc04b9ae36e05e78c2bd0dba4a47fb14a2a5ed9654c86f7b764736f6c63430008000033",
  "immutableReferences": {},
  "source": "pragma solidity ^0.8.0;\r\n\r\ncontract Poll {\r\n    struct PollData {\r\n        address creator;\r\n        string question;\r\n        string[] options;\r\n        uint256 companyId;\r\n        mapping(address => uint256) voters;\r\n        mapping(uint256 => uint256) votes;\r\n        bool finished;\r\n    }\r\n\r\n    mapping(uint256 => PollData) public polls;\r\n    uint256 public pollCount;\r\n\r\n    event PollCreated(uint256 indexed pollId, string question); \r\n    event PollOptionAdded(uint256 indexed pollId, string option, string option2); \r\n    event PollVoted(uint256 indexed pollId, address voter, uint256 optionIndex);\r\n    event PollFinished(uint256 indexed pollId, string question); \r\n\r\n    function createPoll(string memory _question) public {\r\n        pollCount++;\r\n        polls[pollCount].creator = msg.sender;\r\n        polls[pollCount].question = _question;\r\n        emit PollCreated(pollCount, _question);\r\n    }\r\n\r\n    function addPollOption(uint256 _pollId, string memory _option) public { \r\n        require(_pollId > 0 && _pollId <= pollCount, \"Invalid poll ID\");\r\n        require(bytes(_option).length > 0, \"Option cannot be empty\");\r\n        require(msg.sender == polls[_pollId].creator, \"Only the creator can add options\");\r\n        polls[_pollId].options.push(_option);\r\n\r\n        uint lastIndex = polls[_pollId].options.length-1;\r\n\r\n        emit PollOptionAdded(_pollId, _option, polls[_pollId].options[lastIndex]);\r\n    }\r\n\r\n    function vote(uint256 _pollId, uint256 _optionIndex) public { \r\n        require(_pollId > 0 && _pollId <= pollCount, \"Invalid poll ID\");\r\n        require(_optionIndex < polls[_pollId].options.length, \"Invalid option index\"); // Removed check for _optionIndex >= 0\r\n        require(polls[_pollId].voters[msg.sender] == 0, \"You have already voted\");\r\n\r\n        polls[_pollId].voters[msg.sender] = _optionIndex + 1;\r\n        polls[_pollId].votes[_optionIndex]++;\r\n        emit PollVoted(_pollId, msg.sender, _optionIndex);\r\n    }\r\n\r\n    function getPollOption(uint256 _pollId, uint256 _optionId) public view returns (string memory) { \r\n        require(_pollId > 0 && _pollId <= pollCount, \"Invalid poll ID\");\r\n\r\n        // Fetch the poll from the mapping using the _pollId\r\n        PollData storage poll = polls[_pollId];\r\n\r\n        // Return the options array from the poll\r\n        return poll.options[_optionId];\r\n    }\r\n\r\n    function finishPoll(uint256 _pollId) public { \r\n        require(_pollId > 0 && _pollId <= pollCount, \"Invalid poll ID\");\r\n        require(msg.sender == polls[_pollId].creator, \"Only the creator can finish the poll\");\r\n        require(!polls[_pollId].finished, \"Poll already finished\");\r\n\r\n        polls[_pollId].finished = true;\r\n        emit PollFinished(_pollId, polls[_pollId].question);\r\n    }\r\n\r\n    function getPollResults(uint256 _pollId, uint256 _optionId) public view returns (uint256) { \r\n        require(_pollId > 0 && _pollId <= pollCount, \"Invalid poll ID\");\r\n        require(polls[_pollId].finished, \"Poll not finished\");\r\n\r\n        PollData storage poll = polls[_pollId];\r\n\r\n        uint256[] memory results = new uint256[](2);\r\n\r\n        for (uint256 i = 0; i < 2; i++) {\r\n            results[i] = poll.votes[i];\r\n        }\r\n\r\n        // Return the array of vote counts\r\n        return results[_optionId];\r\n    }\r\n\r\n}\r\n",
  "sourcePath": "C:\\Users\\UF\\Desktop\\Github\\ChoiceMaker\\contracts\\Poll.sol",
  "compiler": {
    "name": "solc",
    "version": "0.8.0+commit.c7dfd78e.Emscripten.clang"
  },
  "schemaVersion": "3.4.16",
  "updatedAt": "2024-05-08T14:22:30.230Z",
  "networkType": "ethereum",
  "devdoc": {
    "kind": "dev",
    "methods": {},
    "version": 1
  },
  "userdoc": {
    "kind": "user",
    "methods": {},
    "version": 1
  }
}