{
  "contractName": "User",
  "abi": [
    {
      "anonymous": false,
      "inputs": [
        {
          "indexed": true,
          "internalType": "address",
          "name": "userAddress",
          "type": "address"
        },
        {
          "indexed": false,
          "internalType": "string",
          "name": "username",
          "type": "string"
        },
        {
          "indexed": false,
          "internalType": "uint256",
          "name": "companyId",
          "type": "uint256"
        }
      ],
      "name": "UserCreated",
      "type": "event"
    },
    {
      "anonymous": false,
      "inputs": [
        {
          "indexed": true,
          "internalType": "address",
          "name": "userAddress",
          "type": "address"
        },
        {
          "indexed": false,
          "internalType": "string",
          "name": "username",
          "type": "string"
        },
        {
          "indexed": false,
          "internalType": "uint256",
          "name": "companyId",
          "type": "uint256"
        }
      ],
      "name": "UserLoggedIn",
      "type": "event"
    },
    {
      "inputs": [
        {
          "internalType": "uint256",
          "name": "",
          "type": "uint256"
        }
      ],
      "name": "companies",
      "outputs": [
        {
          "internalType": "string",
          "name": "",
          "type": "string"
        }
      ],
      "stateMutability": "view",
      "type": "function",
      "constant": true
    },
    {
      "inputs": [],
      "name": "companyCount",
      "outputs": [
        {
          "internalType": "uint256",
          "name": "",
          "type": "uint256"
        }
      ],
      "stateMutability": "view",
      "type": "function",
      "constant": true
    },
    {
      "inputs": [
        {
          "internalType": "uint256",
          "name": "",
          "type": "uint256"
        }
      ],
      "name": "companyExists",
      "outputs": [
        {
          "internalType": "bool",
          "name": "",
          "type": "bool"
        }
      ],
      "stateMutability": "view",
      "type": "function",
      "constant": true
    },
    {
      "inputs": [
        {
          "internalType": "address",
          "name": "",
          "type": "address"
        }
      ],
      "name": "users",
      "outputs": [
        {
          "internalType": "string",
          "name": "username",
          "type": "string"
        },
        {
          "internalType": "address",
          "name": "userAddress",
          "type": "address"
        },
        {
          "internalType": "uint256",
          "name": "companyId",
          "type": "uint256"
        }
      ],
      "stateMutability": "view",
      "type": "function",
      "constant": true
    },
    {
      "inputs": [
        {
          "internalType": "string",
          "name": "_username",
          "type": "string"
        },
        {
          "internalType": "uint256",
          "name": "_companyId",
          "type": "uint256"
        }
      ],
      "name": "signUp",
      "outputs": [],
      "stateMutability": "nonpayable",
      "type": "function"
    },
    {
      "inputs": [],
      "name": "getUserByAddress",
      "outputs": [
        {
          "internalType": "string",
          "name": "username",
          "type": "string"
        },
        {
          "internalType": "uint256",
          "name": "companyId",
          "type": "uint256"
        }
      ],
      "stateMutability": "view",
      "type": "function",
      "constant": true
    },
    {
      "inputs": [
        {
          "internalType": "uint256",
          "name": "_companyId",
          "type": "uint256"
        }
      ],
      "name": "checkCompanyExist",
      "outputs": [
        {
          "internalType": "bool",
          "name": "",
          "type": "bool"
        }
      ],
      "stateMutability": "view",
      "type": "function",
      "constant": true
    }
  ],
  "bytecode": "0x608060405234801561001057600080fd5b506108b6806100206000396000f3fe608060405234801561001057600080fd5b506004361061007d5760003560e01c806369075afe1161005b57806369075afe146100e15780638e75dd47146100f6578063a87430ba1461010b578063f8643b0b1461012d5761007d565b80632813d19d146100825780634073b132146100ab57806363e357d6146100c1575b600080fd5b6100956100903660046106ca565b610140565b6040516100a29190610738565b60405180910390f35b6100b36101da565b6040516100a2929190610779565b6100d46100cf3660046106ca565b6102b8565b6040516100a2919061072d565b6100f46100ef366004610623565b6102cd565b005b6100fe61048d565b6040516100a291906107ff565b61011e6101193660046105f5565b610493565b6040516100a29392919061074b565b6100d461013b3660046106ca565b610547565b6002602052600090815260409020805461015990610808565b80601f016020809104026020016040519081016040528092919081815260200182805461018590610808565b80156101d25780601f106101a7576101008083540402835291602001916101d2565b820191906000526020600020905b8154815290600101906020018083116101b557829003601f168201915b505050505081565b336000908152600160205260408082208151606081810190935281549293928392908290829061020990610808565b80601f016020809104026020016040519081016040528092919081815260200182805461023590610808565b80156102825780601f1061025757610100808354040283529160200191610282565b820191906000526020600020905b81548152906001019060200180831161026557829003601f168201915b505050918352505060018201546001600160a01b0316602082015260029091015460409182015281519101519093509150509091565b60009081526020819052604090205460ff1690565b60008251116102f75760405162461bcd60e51b81526004016102ee9061079b565b60405180910390fd5b33600090815260016020819052604090912001546001600160a01b0316156103315760405162461bcd60e51b81526004016102ee906107d2565b336000908152600160205260409020805461034b90610808565b15905061036a5760405162461bcd60e51b81526004016102ee906107d2565b336000908152600160205260409020600201541561039a5760405162461bcd60e51b81526004016102ee906107d2565b60008181526020819052604090205460ff166103df57600380549060006103c083610843565b90915550506000818152602081905260409020805460ff191660011790555b60408051606081018252838152336020808301829052828401859052600091825260018152929020815180519293919261041c928492019061055c565b5060208201516001820180546001600160a01b0319166001600160a01b039092169190911790556040918201516002909101555133907f196a149a119e63a40fb6cf63cc95b680cc1e42d985ede26ed52f560d7b68f8f3906104819085908590610779565b60405180910390a25050565b60035481565b6001602052600090815260409020805481906104ae90610808565b80601f01602080910402602001604051908101604052809291908181526020018280546104da90610808565b80156105275780601f106104fc57610100808354040283529160200191610527565b820191906000526020600020905b81548152906001019060200180831161050a57829003601f168201915b50505050600183015460029093015491926001600160a01b031691905083565b60006020819052908152604090205460ff1681565b82805461056890610808565b90600052602060002090601f01602090048101928261058a57600085556105d0565b82601f106105a357805160ff19168380011785556105d0565b828001600101855582156105d0579182015b828111156105d05782518255916020019190600101906105b5565b506105dc9291506105e0565b5090565b5b808211156105dc57600081556001016105e1565b600060208284031215610606578081fd5b81356001600160a01b038116811461061c578182fd5b9392505050565b60008060408385031215610635578081fd5b823567ffffffffffffffff8082111561064c578283fd5b818501915085601f83011261065f578283fd5b81356020828211156106735761067361086a565b604051601f8301601f19168101820184811182821017156106965761069661086a565b60405282815284830182018910156106ac578586fd5b82828601838301379182018101949094529694909201359450505050565b6000602082840312156106db578081fd5b5035919050565b60008151808452815b81811015610707576020818501810151868301820152016106eb565b818111156107185782602083870101525b50601f01601f19169290920160200192915050565b901515815260200190565b60006020825261061c60208301846106e2565b60006060825261075e60608301866106e2565b6001600160a01b039490941660208301525060400152919050565b60006040825261078c60408301856106e2565b90508260208301529392505050565b60208082526018908201527f557365726e616d652063616e6e6f7420626520656d7074790000000000000000604082015260600190565b6020808252601390820152725573657220616c72656164792065786973747360681b604082015260600190565b90815260200190565b60028104600182168061081c57607f821691505b6020821081141561083d57634e487b7160e01b600052602260045260246000fd5b50919050565b600060001982141561086357634e487b7160e01b81526011600452602481fd5b5060010190565b634e487b7160e01b600052604160045260246000fdfea26469706673582212209d1ecb642deba1b6143a2349fd94ae22376b72dc8020b8eade9f3dfd8129867064736f6c63430008000033",
  "immutableReferences": {},
  "source": "pragma solidity ^0.8.0;\r\n\r\ncontract User {\r\n    struct UserData {\r\n        string username;\r\n        address userAddress;\r\n        uint256 companyId; \r\n    }\r\n\r\n    mapping(uint256 => bool) public companyExists;\r\n    mapping(address => UserData) public users;\r\n    mapping(uint256 => string) public companies; \r\n    uint256 public companyCount; \r\n\r\n    event UserCreated(address indexed userAddress, string username, uint256 companyId); \r\n    event UserLoggedIn(address indexed userAddress, string username, uint256 companyId); \r\n\r\n    function signUp(string memory _username, uint256 _companyId) public {\r\n        require(bytes(_username).length > 0, \"Username cannot be empty\");\r\n        require(users[msg.sender].userAddress == address(0), \"User already exists\");\r\n        require(bytes(users[msg.sender].username).length == 0, \"User already exists\");\r\n        require(users[msg.sender].companyId == 0, \"User already exists\");\r\n        if(companyExists[_companyId]==false){\r\n            companyCount++;\r\n            companyExists[_companyId] = true;\r\n        }\r\n\r\n        users[msg.sender] = UserData(_username, msg.sender, _companyId);\r\n        emit UserCreated(msg.sender, _username, _companyId);\r\n    }\r\n\r\n    function getUserByAddress() public view returns (string memory username, uint256 companyId) { \r\n        UserData memory user = users[msg.sender];\r\n        return (user.username, user.companyId);\r\n    }\r\n\r\n    function checkCompanyExist(uint256 _companyId) public view returns (bool) { \r\n        return companyExists[_companyId];\r\n    }\r\n}\r\n",
  "sourcePath": "C:\\Users\\UF\\Desktop\\Github\\ChoiceMaker\\contracts\\User.sol",
  "compiler": {
    "name": "solc",
    "version": "0.8.0+commit.c7dfd78e.Emscripten.clang"
  },
  "schemaVersion": "3.4.16",
  "updatedAt": "2024-05-09T06:20:25.978Z",
  "networkType": "ethereum",
  "devdoc": {
    "kind": "dev",
    "methods": {},
    "version": 1
  },
  "userdoc": {
    "kind": "user",
    "methods": {},
    "version": 1
  }
}