{
  "contractName": "User",
  "abi": [
    {
      "anonymous": false,
      "inputs": [
        {
          "indexed": true,
          "internalType": "address",
          "name": "userAddress",
          "type": "address"
        },
        {
          "indexed": false,
          "internalType": "string",
          "name": "username",
          "type": "string"
        },
        {
          "indexed": false,
          "internalType": "uint256",
          "name": "companyId",
          "type": "uint256"
        }
      ],
      "name": "UserCreated",
      "type": "event"
    },
    {
      "constant": true,
      "inputs": [
        {
          "internalType": "uint256",
          "name": "",
          "type": "uint256"
        }
      ],
      "name": "companies",
      "outputs": [
        {
          "internalType": "string",
          "name": "",
          "type": "string"
        }
      ],
      "payable": false,
      "stateMutability": "view",
      "type": "function"
    },
    {
      "constant": true,
      "inputs": [],
      "name": "companyCount",
      "outputs": [
        {
          "internalType": "uint256",
          "name": "",
          "type": "uint256"
        }
      ],
      "payable": false,
      "stateMutability": "view",
      "type": "function"
    },
    {
      "constant": true,
      "inputs": [
        {
          "internalType": "address",
          "name": "",
          "type": "address"
        }
      ],
      "name": "users",
      "outputs": [
        {
          "internalType": "string",
          "name": "username",
          "type": "string"
        },
        {
          "internalType": "address",
          "name": "userAddress",
          "type": "address"
        },
        {
          "internalType": "uint256",
          "name": "companyId",
          "type": "uint256"
        }
      ],
      "payable": false,
      "stateMutability": "view",
      "type": "function"
    },
    {
      "constant": false,
      "inputs": [
        {
          "internalType": "string",
          "name": "_username",
          "type": "string"
        },
        {
          "internalType": "uint256",
          "name": "_companyId",
          "type": "uint256"
        }
      ],
      "name": "signUp",
      "outputs": [],
      "payable": false,
      "stateMutability": "nonpayable",
      "type": "function"
    }
  ],
  "bytecode": "0x608060405234801561001057600080fd5b50610928806100206000396000f3fe608060405234801561001057600080fd5b506004361061004c5760003560e01c80632813d19d1461005157806369075afe146100f85780638e75dd47146101bd578063a87430ba146101db575b600080fd5b61007d6004803603602081101561006757600080fd5b81019080803590602001909291905050506102d2565b6040518080602001828103825283818151815260200191508051906020019080838360005b838110156100bd5780820151818401526020810190506100a2565b50505050905090810190601f1680156100ea5780820380516001836020036101000a031916815260200191505b509250505060405180910390f35b6101bb6004803603604081101561010e57600080fd5b810190808035906020019064010000000081111561012b57600080fd5b82018360208201111561013d57600080fd5b8035906020019184600183028401116401000000008311171561015f57600080fd5b91908080601f016020809104026020016040519081016040528093929190818152602001838380828437600081840152601f19601f82011690508083019250505050505050919291929080359060200190929190505050610382565b005b6101c56106e6565b6040518082815260200191505060405180910390f35b61021d600480360360208110156101f157600080fd5b81019080803573ffffffffffffffffffffffffffffffffffffffff1690602001909291905050506106ec565b60405180806020018473ffffffffffffffffffffffffffffffffffffffff1673ffffffffffffffffffffffffffffffffffffffff168152602001838152602001828103825285818151815260200191508051906020019080838360005b8381101561029557808201518184015260208101905061027a565b50505050905090810190601f1680156102c25780820380516001836020036101000a031916815260200191505b5094505050505060405180910390f35b60016020528060005260406000206000915090508054600181600116156101000203166002900480601f01602080910402602001604051908101604052809291908181526020018280546001816001161561010002031660029004801561037a5780601f1061034f5761010080835404028352916020019161037a565b820191906000526020600020905b81548152906001019060200180831161035d57829003601f168201915b505050505081565b60008251116103f9576040517f08c379a00000000000000000000000000000000000000000000000000000000081526004018080602001828103825260188152602001807f557365726e616d652063616e6e6f7420626520656d707479000000000000000081525060200191505060405180910390fd5b600073ffffffffffffffffffffffffffffffffffffffff166000803373ffffffffffffffffffffffffffffffffffffffff1673ffffffffffffffffffffffffffffffffffffffff16815260200190815260200160002060010160009054906101000a900473ffffffffffffffffffffffffffffffffffffffff1673ffffffffffffffffffffffffffffffffffffffff16146104fc576040517f08c379a00000000000000000000000000000000000000000000000000000000081526004018080602001828103825260138152602001807f5573657220616c7265616479206578697374730000000000000000000000000081525060200191505060405180910390fd5b6000811415610547576002600081548092919060010191905055508160016000600254815260200190815260200160002090805190602001906105409291906107ce565b5060025490505b60405180606001604052808381526020013373ffffffffffffffffffffffffffffffffffffffff168152602001828152506000803373ffffffffffffffffffffffffffffffffffffffff1673ffffffffffffffffffffffffffffffffffffffff16815260200190815260200160002060008201518160000190805190602001906105d292919061084e565b5060208201518160010160006101000a81548173ffffffffffffffffffffffffffffffffffffffff021916908373ffffffffffffffffffffffffffffffffffffffff160217905550604082015181600201559050503373ffffffffffffffffffffffffffffffffffffffff167f196a149a119e63a40fb6cf63cc95b680cc1e42d985ede26ed52f560d7b68f8f383836040518080602001838152602001828103825284818151815260200191508051906020019080838360005b838110156106a757808201518184015260208101905061068c565b50505050905090810190601f1680156106d45780820380516001836020036101000a031916815260200191505b50935050505060405180910390a25050565b60025481565b6000602052806000526040600020600091509050806000018054600181600116156101000203166002900480601f0160208091040260200160405190810160405280929190818152602001828054600181600116156101000203166002900480156107985780601f1061076d57610100808354040283529160200191610798565b820191906000526020600020905b81548152906001019060200180831161077b57829003601f168201915b5050505050908060010160009054906101000a900473ffffffffffffffffffffffffffffffffffffffff16908060020154905083565b828054600181600116156101000203166002900490600052602060002090601f016020900481019282601f1061080f57805160ff191683800117855561083d565b8280016001018555821561083d579182015b8281111561083c578251825591602001919060010190610821565b5b50905061084a91906108ce565b5090565b828054600181600116156101000203166002900490600052602060002090601f016020900481019282601f1061088f57805160ff19168380011785556108bd565b828001600101855582156108bd579182015b828111156108bc5782518255916020019190600101906108a1565b5b5090506108ca91906108ce565b5090565b6108f091905b808211156108ec5760008160009055506001016108d4565b5090565b9056fea265627a7a72315820106f3c49334ff2f0c0e5ba2dab37cc03e7e9e5cd8830f3a684c614ecb43df64b64736f6c63430005100032",
  "source": "pragma solidity ^0.5.0;\r\n\r\ncontract User {\r\n    struct UserData {\r\n        string username;\r\n        address userAddress;\r\n        uint companyId;\r\n    }\r\n\r\n    mapping(address => UserData) public users;\r\n    mapping(uint => string) public companies;\r\n    uint public companyCount;\r\n\r\n    event UserCreated(address indexed userAddress, string username, uint companyId);\r\n\r\n    function signUp(string memory _username, uint _companyId) public {\r\n        require(bytes(_username).length > 0, \"Username cannot be empty\");\r\n        require(users[msg.sender].userAddress == address(0), \"User already exists\");\r\n\r\n        if (_companyId == 0) {\r\n            companyCount++;\r\n            companies[companyCount] = _username;\r\n            _companyId = companyCount;\r\n        }\r\n\r\n        users[msg.sender] = UserData(_username, msg.sender, _companyId);\r\n        emit UserCreated(msg.sender, _username, _companyId);\r\n    }\r\n}\r\n",
  "sourcePath": "C:\\Users\\UF\\Desktop\\Github\\ChoiceMaker\\contracts\\User.sol",
  "compiler": {
    "name": "solc",
    "version": "0.5.16+commit.9c3226ce.Emscripten.clang"
  },
  "schemaVersion": "3.4.16",
  "updatedAt": "2024-04-28T09:34:02.448Z",
  "networkType": "ethereum",
  "devdoc": {
    "methods": {}
  },
  "userdoc": {
    "methods": {}
  }
}