{
  "contractName": "User",
  "abi": [
    {
      "anonymous": false,
      "inputs": [
        {
          "indexed": true,
          "internalType": "address",
          "name": "userAddress",
          "type": "address"
        },
        {
          "indexed": false,
          "internalType": "string",
          "name": "username",
          "type": "string"
        },
        {
          "indexed": false,
          "internalType": "uint256",
          "name": "companyId",
          "type": "uint256"
        }
      ],
      "name": "UserCreated",
      "type": "event"
    },
    {
      "anonymous": false,
      "inputs": [
        {
          "indexed": true,
          "internalType": "address",
          "name": "userAddress",
          "type": "address"
        },
        {
          "indexed": false,
          "internalType": "string",
          "name": "username",
          "type": "string"
        },
        {
          "indexed": false,
          "internalType": "uint256",
          "name": "companyId",
          "type": "uint256"
        }
      ],
      "name": "UserLoggedIn",
      "type": "event"
    },
    {
      "inputs": [
        {
          "internalType": "uint256",
          "name": "",
          "type": "uint256"
        }
      ],
      "name": "companies",
      "outputs": [
        {
          "internalType": "string",
          "name": "",
          "type": "string"
        }
      ],
      "stateMutability": "view",
      "type": "function",
      "constant": true
    },
    {
      "inputs": [],
      "name": "companyCount",
      "outputs": [
        {
          "internalType": "uint256",
          "name": "",
          "type": "uint256"
        }
      ],
      "stateMutability": "view",
      "type": "function",
      "constant": true
    },
    {
      "inputs": [
        {
          "internalType": "address",
          "name": "",
          "type": "address"
        }
      ],
      "name": "users",
      "outputs": [
        {
          "internalType": "string",
          "name": "username",
          "type": "string"
        },
        {
          "internalType": "address",
          "name": "userAddress",
          "type": "address"
        },
        {
          "internalType": "uint256",
          "name": "companyId",
          "type": "uint256"
        }
      ],
      "stateMutability": "view",
      "type": "function",
      "constant": true
    },
    {
      "inputs": [
        {
          "internalType": "string",
          "name": "_username",
          "type": "string"
        },
        {
          "internalType": "uint256",
          "name": "_companyId",
          "type": "uint256"
        }
      ],
      "name": "signUp",
      "outputs": [],
      "stateMutability": "nonpayable",
      "type": "function"
    },
    {
      "inputs": [],
      "name": "getUserByAddress",
      "outputs": [
        {
          "internalType": "string",
          "name": "username",
          "type": "string"
        },
        {
          "internalType": "uint256",
          "name": "companyId",
          "type": "uint256"
        }
      ],
      "stateMutability": "view",
      "type": "function",
      "constant": true
    }
  ],
  "bytecode": "0x608060405234801561001057600080fd5b50610823806100206000396000f3fe608060405234801561001057600080fd5b50600436106100575760003560e01c80632813d19d1461005c5780634073b1321461008557806369075afe1461009b5780638e75dd47146100b0578063a87430ba146100c5575b600080fd5b61006f61006a366004610642565b6100e7565b60405161007c91906106a5565b60405180910390f35b61008d610181565b60405161007c9291906106e6565b6100ae6100a936600461059b565b61025f565b005b6100b861041a565b60405161007c919061076c565b6100d86100d336600461056d565b610420565b60405161007c939291906106b8565b6001602052600090815260409020805461010090610775565b80601f016020809104026020016040519081016040528092919081815260200182805461012c90610775565b80156101795780601f1061014e57610100808354040283529160200191610179565b820191906000526020600020905b81548152906001019060200180831161015c57829003601f168201915b505050505081565b33600090815260208190526040808220815160608181019093528154929392839290829082906101b090610775565b80601f01602080910402602001604051908101604052809291908181526020018280546101dc90610775565b80156102295780601f106101fe57610100808354040283529160200191610229565b820191906000526020600020905b81548152906001019060200180831161020c57829003601f168201915b505050918352505060018201546001600160a01b0316602082015260029091015460409182015281519101519093509150509091565b60008251116102895760405162461bcd60e51b815260040161028090610708565b60405180910390fd5b336000908152602081905260409020600101546001600160a01b0316156102c25760405162461bcd60e51b81526004016102809061073f565b33600090815260208190526040902080546102dc90610775565b1590506102fb5760405162461bcd60e51b81526004016102809061073f565b336000908152602081905260409020600201541561032b5760405162461bcd60e51b81526004016102809061073f565b8061036d5760028054906000610340836107b0565b909155505060025460009081526001602090815260409091208351610367928501906104d4565b50506002545b60408051606081018252838152336020808301829052828401859052600091825281815292902081518051929391926103a992849201906104d4565b5060208201516001820180546001600160a01b0319166001600160a01b039092169190911790556040918201516002909101555133907f196a149a119e63a40fb6cf63cc95b680cc1e42d985ede26ed52f560d7b68f8f39061040e90859085906106e6565b60405180910390a25050565b60025481565b60006020819052908152604090208054819061043b90610775565b80601f016020809104026020016040519081016040528092919081815260200182805461046790610775565b80156104b45780601f10610489576101008083540402835291602001916104b4565b820191906000526020600020905b81548152906001019060200180831161049757829003601f168201915b50505050600183015460029093015491926001600160a01b031691905083565b8280546104e090610775565b90600052602060002090601f0160209004810192826105025760008555610548565b82601f1061051b57805160ff1916838001178555610548565b82800160010185558215610548579182015b8281111561054857825182559160200191906001019061052d565b50610554929150610558565b5090565b5b808211156105545760008155600101610559565b60006020828403121561057e578081fd5b81356001600160a01b0381168114610594578182fd5b9392505050565b600080604083850312156105ad578081fd5b823567ffffffffffffffff808211156105c4578283fd5b818501915085601f8301126105d7578283fd5b81356020828211156105eb576105eb6107d7565b604051601f8301601f191681018201848111828210171561060e5761060e6107d7565b6040528281528483018201891015610624578586fd5b82828601838301379182018101949094529694909201359450505050565b600060208284031215610653578081fd5b5035919050565b60008151808452815b8181101561067f57602081850181015186830182015201610663565b818111156106905782602083870101525b50601f01601f19169290920160200192915050565b600060208252610594602083018461065a565b6000606082526106cb606083018661065a565b6001600160a01b039490941660208301525060400152919050565b6000604082526106f9604083018561065a565b90508260208301529392505050565b60208082526018908201527f557365726e616d652063616e6e6f7420626520656d7074790000000000000000604082015260600190565b6020808252601390820152725573657220616c72656164792065786973747360681b604082015260600190565b90815260200190565b60028104600182168061078957607f821691505b602082108114156107aa57634e487b7160e01b600052602260045260246000fd5b50919050565b60006000198214156107d057634e487b7160e01b81526011600452602481fd5b5060010190565b634e487b7160e01b600052604160045260246000fdfea264697066735822122031c03431b36110a1528ce22b359428251dc6b2b9db73ad61104055a7e7d1fccb64736f6c63430008000033",
  "immutableReferences": {},
  "source": "pragma solidity ^0.8.0;\r\n\r\ncontract User {\r\n    struct UserData {\r\n        string username;\r\n        address userAddress;\r\n        uint256 companyId; \r\n    }\r\n\r\n    mapping(address => UserData) public users;\r\n    mapping(uint256 => string) public companies; \r\n    uint256 public companyCount; \r\n\r\n    event UserCreated(address indexed userAddress, string username, uint256 companyId); \r\n    event UserLoggedIn(address indexed userAddress, string username, uint256 companyId); \r\n\r\n    function signUp(string memory _username, uint256 _companyId) public {\r\n        require(bytes(_username).length > 0, \"Username cannot be empty\");\r\n        require(users[msg.sender].userAddress == address(0), \"User already exists\");\r\n        require(bytes(users[msg.sender].username).length == 0, \"User already exists\");\r\n        require(users[msg.sender].companyId == 0, \"User already exists\");\r\n\r\n        if (_companyId == 0) {\r\n            companyCount++;\r\n            companies[companyCount] = _username;\r\n            _companyId = companyCount;\r\n        }\r\n\r\n        users[msg.sender] = UserData(_username, msg.sender, _companyId);\r\n        emit UserCreated(msg.sender, _username, _companyId);\r\n    }\r\n\r\n    function getUserByAddress() public view returns (string memory username, uint256 companyId) { \r\n        UserData memory user = users[msg.sender];\r\n        return (user.username, user.companyId);\r\n    }\r\n}\r\n",
  "sourcePath": "C:\\Users\\UF\\Desktop\\Github\\ChoiceMaker\\contracts\\User.sol",
  "compiler": {
    "name": "solc",
    "version": "0.8.0+commit.c7dfd78e.Emscripten.clang"
  },
  "schemaVersion": "3.4.16",
  "updatedAt": "2024-05-07T19:24:40.494Z",
  "networkType": "ethereum",
  "devdoc": {
    "kind": "dev",
    "methods": {},
    "version": 1
  },
  "userdoc": {
    "kind": "user",
    "methods": {},
    "version": 1
  }
}